{
  "contractName": "NftMarket",
  "abi": [
    {
      "inputs": [],
      "stateMutability": "nonpayable",
      "type": "constructor"
    },
    {
      "anonymous": false,
      "inputs": [
        {
          "indexed": true,
          "internalType": "address",
          "name": "owner",
          "type": "address"
        },
        {
          "indexed": true,
          "internalType": "address",
          "name": "approved",
          "type": "address"
        },
        {
          "indexed": true,
          "internalType": "uint256",
          "name": "tokenId",
          "type": "uint256"
        }
      ],
      "name": "Approval",
      "type": "event"
    },
    {
      "anonymous": false,
      "inputs": [
        {
          "indexed": true,
          "internalType": "address",
          "name": "owner",
          "type": "address"
        },
        {
          "indexed": true,
          "internalType": "address",
          "name": "operator",
          "type": "address"
        },
        {
          "indexed": false,
          "internalType": "bool",
          "name": "approved",
          "type": "bool"
        }
      ],
      "name": "ApprovalForAll",
      "type": "event"
    },
    {
      "anonymous": false,
      "inputs": [
        {
          "indexed": true,
          "internalType": "address",
          "name": "from",
          "type": "address"
        },
        {
          "indexed": true,
          "internalType": "address",
          "name": "to",
          "type": "address"
        },
        {
          "indexed": true,
          "internalType": "uint256",
          "name": "tokenId",
          "type": "uint256"
        }
      ],
      "name": "Transfer",
      "type": "event"
    },
    {
      "inputs": [
        {
          "internalType": "address",
          "name": "to",
          "type": "address"
        },
        {
          "internalType": "uint256",
          "name": "tokenId",
          "type": "uint256"
        }
      ],
      "name": "approve",
      "outputs": [],
      "stateMutability": "nonpayable",
      "type": "function"
    },
    {
      "inputs": [
        {
          "internalType": "address",
          "name": "owner",
          "type": "address"
        }
      ],
      "name": "balanceOf",
      "outputs": [
        {
          "internalType": "uint256",
          "name": "",
          "type": "uint256"
        }
      ],
      "stateMutability": "view",
      "type": "function"
    },
    {
      "inputs": [
        {
          "internalType": "uint256",
          "name": "tokenId",
          "type": "uint256"
        }
      ],
      "name": "getApproved",
      "outputs": [
        {
          "internalType": "address",
          "name": "",
          "type": "address"
        }
      ],
      "stateMutability": "view",
      "type": "function"
    },
    {
      "inputs": [
        {
          "internalType": "address",
          "name": "owner",
          "type": "address"
        },
        {
          "internalType": "address",
          "name": "operator",
          "type": "address"
        }
      ],
      "name": "isApprovedForAll",
      "outputs": [
        {
          "internalType": "bool",
          "name": "",
          "type": "bool"
        }
      ],
      "stateMutability": "view",
      "type": "function"
    },
    {
      "inputs": [
        {
          "internalType": "string",
          "name": "tokenURI",
          "type": "string"
        }
      ],
      "name": "mintToken",
      "outputs": [
        {
          "internalType": "uint256",
          "name": "",
          "type": "uint256"
        }
      ],
      "stateMutability": "payable",
      "type": "function"
    },
    {
      "inputs": [],
      "name": "name",
      "outputs": [
        {
          "internalType": "string",
          "name": "",
          "type": "string"
        }
      ],
      "stateMutability": "view",
      "type": "function"
    },
    {
      "inputs": [
        {
          "internalType": "uint256",
          "name": "tokenId",
          "type": "uint256"
        }
      ],
      "name": "ownerOf",
      "outputs": [
        {
          "internalType": "address",
          "name": "",
          "type": "address"
        }
      ],
      "stateMutability": "view",
      "type": "function"
    },
    {
      "inputs": [
        {
          "internalType": "address",
          "name": "from",
          "type": "address"
        },
        {
          "internalType": "address",
          "name": "to",
          "type": "address"
        },
        {
          "internalType": "uint256",
          "name": "tokenId",
          "type": "uint256"
        }
      ],
      "name": "safeTransferFrom",
      "outputs": [],
      "stateMutability": "nonpayable",
      "type": "function"
    },
    {
      "inputs": [
        {
          "internalType": "address",
          "name": "from",
          "type": "address"
        },
        {
          "internalType": "address",
          "name": "to",
          "type": "address"
        },
        {
          "internalType": "uint256",
          "name": "tokenId",
          "type": "uint256"
        },
        {
          "internalType": "bytes",
          "name": "data",
          "type": "bytes"
        }
      ],
      "name": "safeTransferFrom",
      "outputs": [],
      "stateMutability": "nonpayable",
      "type": "function"
    },
    {
      "inputs": [
        {
          "internalType": "address",
          "name": "operator",
          "type": "address"
        },
        {
          "internalType": "bool",
          "name": "approved",
          "type": "bool"
        }
      ],
      "name": "setApprovalForAll",
      "outputs": [],
      "stateMutability": "nonpayable",
      "type": "function"
    },
    {
      "inputs": [
        {
          "internalType": "bytes4",
          "name": "interfaceId",
          "type": "bytes4"
        }
      ],
      "name": "supportsInterface",
      "outputs": [
        {
          "internalType": "bool",
          "name": "",
          "type": "bool"
        }
      ],
      "stateMutability": "view",
      "type": "function"
    },
    {
      "inputs": [],
      "name": "symbol",
      "outputs": [
        {
          "internalType": "string",
          "name": "",
          "type": "string"
        }
      ],
      "stateMutability": "view",
      "type": "function"
    },
    {
      "inputs": [
        {
          "internalType": "uint256",
          "name": "tokenId",
          "type": "uint256"
        }
      ],
      "name": "tokenURI",
      "outputs": [
        {
          "internalType": "string",
          "name": "",
          "type": "string"
        }
      ],
      "stateMutability": "view",
      "type": "function"
    },
    {
      "inputs": [
        {
          "internalType": "address",
          "name": "from",
          "type": "address"
        },
        {
          "internalType": "address",
          "name": "to",
          "type": "address"
        },
        {
          "internalType": "uint256",
          "name": "tokenId",
          "type": "uint256"
        }
      ],
      "name": "transferFrom",
      "outputs": [],
      "stateMutability": "nonpayable",
      "type": "function"
    }
  ],
  "bytecode": "60806040523480156200001157600080fd5b506040518060400160405280600c81526020016b10dc99585d1d5c995cd3919560a21b8152506040518060400160405280600481526020016310d3919560e21b815250816000908162000065919062000122565b50600162000074828262000122565b505050620001ee565b634e487b7160e01b600052604160045260246000fd5b600181811c90821680620000a857607f821691505b602082108103620000c957634e487b7160e01b600052602260045260246000fd5b50919050565b601f8211156200011d57600081815260208120601f850160051c81016020861015620000f85750805b601f850160051c820191505b81811015620001195782815560010162000104565b5050505b505050565b81516001600160401b038111156200013e576200013e6200007d565b62000156816200014f845462000093565b84620000cf565b602080601f8311600181146200018e5760008415620001755750858301515b600019600386901b1c1916600185901b17855562000119565b600085815260208120601f198616915b82811015620001bf578886015182559484019460019091019084016200019e565b5085821015620001de5787850151600019600388901b60f8161c191681555b5050505050600190811b01905550565b6116b280620001fe6000396000f3fe6080604052600436106100dd5760003560e01c80636352211e1161007f578063a22cb46511610059578063a22cb46514610249578063b88d4fde14610269578063c87b56dd14610289578063e985e9c5146102a957600080fd5b80636352211e146101f457806370a082311461021457806395d89b411461023457600080fd5b8063095ea7b3116100bb578063095ea7b31461017157806323b872dd1461019357806333eba49a146101b357806342842e0e146101d457600080fd5b806301ffc9a7146100e257806306fdde0314610117578063081812fc14610139575b600080fd5b3480156100ee57600080fd5b506101026100fd36600461106c565b6102c9565b60405190151581526020015b60405180910390f35b34801561012357600080fd5b5061012c61031b565b60405161010e91906110d9565b34801561014557600080fd5b506101596101543660046110ec565b6103ad565b6040516001600160a01b03909116815260200161010e565b34801561017d57600080fd5b5061019161018c366004611121565b6103d4565b005b34801561019f57600080fd5b506101916101ae36600461114b565b6104ee565b6101c66101c1366004611213565b61051f565b60405190815260200161010e565b3480156101e057600080fd5b506101916101ef36600461114b565b61055e565b34801561020057600080fd5b5061015961020f3660046110ec565b610579565b34801561022057600080fd5b506101c661022f36600461125c565b6105d9565b34801561024057600080fd5b5061012c61065f565b34801561025557600080fd5b50610191610264366004611277565b61066e565b34801561027557600080fd5b506101916102843660046112b3565b61067d565b34801561029557600080fd5b5061012c6102a43660046110ec565b6106b5565b3480156102b557600080fd5b506101026102c436600461132f565b6107c5565b60006001600160e01b031982166380ac58cd60e01b14806102fa57506001600160e01b03198216635b5e139f60e01b145b8061031557506301ffc9a760e01b6001600160e01b03198316145b92915050565b60606000805461032a90611362565b80601f016020809104026020016040519081016040528092919081815260200182805461035690611362565b80156103a35780601f10610378576101008083540402835291602001916103a3565b820191906000526020600020905b81548152906001019060200180831161038657829003601f168201915b5050505050905090565b60006103b8826107f3565b506000908152600460205260409020546001600160a01b031690565b60006103df82610579565b9050806001600160a01b0316836001600160a01b0316036104515760405162461bcd60e51b815260206004820152602160248201527f4552433732313a20617070726f76616c20746f2063757272656e74206f776e656044820152603960f91b60648201526084015b60405180910390fd5b336001600160a01b038216148061046d575061046d81336107c5565b6104df5760405162461bcd60e51b815260206004820152603e60248201527f4552433732313a20617070726f76652063616c6c6572206973206e6f7420746f60448201527f6b656e206f776e6572206e6f7220617070726f76656420666f7220616c6c00006064820152608401610448565b6104e98383610855565b505050565b6104f833826108c3565b6105145760405162461bcd60e51b81526004016104489061139c565b6104e9838383610921565b600061052f600880546001019055565b61053d600780546001019055565b600061054860085490565b90506105543382610abd565b6103158184610ad7565b6104e98383836040518060200160405280600081525061067d565b6000818152600260205260408120546001600160a01b0316806103155760405162461bcd60e51b8152602060048201526018602482015277115490cdcc8c4e881a5b9d985b1a59081d1bdad95b88125160421b6044820152606401610448565b60006001600160a01b0382166106435760405162461bcd60e51b815260206004820152602960248201527f4552433732313a2061646472657373207a65726f206973206e6f7420612076616044820152683634b21037bbb732b960b91b6064820152608401610448565b506001600160a01b031660009081526003602052604090205490565b60606001805461032a90611362565b610679338383610b6a565b5050565b61068733836108c3565b6106a35760405162461bcd60e51b81526004016104489061139c565b6106af84848484610c38565b50505050565b60606106c0826107f3565b600082815260066020526040812080546106d990611362565b80601f016020809104026020016040519081016040528092919081815260200182805461070590611362565b80156107525780601f1061072757610100808354040283529160200191610752565b820191906000526020600020905b81548152906001019060200180831161073557829003601f168201915b50505050509050600061077060408051602081019091526000815290565b90508051600003610782575092915050565b8151156107b457808260405160200161079c9291906113ea565b60405160208183030381529060405292505050919050565b6107bd84610c6b565b949350505050565b6001600160a01b03918216600090815260056020908152604080832093909416825291909152205460ff1690565b6000818152600260205260409020546001600160a01b03166108525760405162461bcd60e51b8152602060048201526018602482015277115490cdcc8c4e881a5b9d985b1a59081d1bdad95b88125160421b6044820152606401610448565b50565b600081815260046020526040902080546001600160a01b0319166001600160a01b038416908117909155819061088a82610579565b6001600160a01b03167f8c5be1e5ebec7d5bd14f71427d1e84f3dd0314c0f7b2291e5b200ac8c7c3b92560405160405180910390a45050565b6000806108cf83610579565b9050806001600160a01b0316846001600160a01b031614806108f657506108f681856107c5565b806107bd5750836001600160a01b031661090f846103ad565b6001600160a01b031614949350505050565b826001600160a01b031661093482610579565b6001600160a01b0316146109985760405162461bcd60e51b815260206004820152602560248201527f4552433732313a207472616e736665722066726f6d20696e636f72726563742060448201526437bbb732b960d91b6064820152608401610448565b6001600160a01b0382166109fa5760405162461bcd60e51b8152602060048201526024808201527f4552433732313a207472616e7366657220746f20746865207a65726f206164646044820152637265737360e01b6064820152608401610448565b610a05600082610855565b6001600160a01b0383166000908152600360205260408120805460019290610a2e90849061142f565b90915550506001600160a01b0382166000908152600360205260408120805460019290610a5c908490611442565b909155505060008181526002602052604080822080546001600160a01b0319166001600160a01b0386811691821790925591518493918716917fddf252ad1be2c89b69c2b068fc378daa952ba7f163c4a11628f55a4df523b3ef91a4505050565b610679828260405180602001604052806000815250610cdf565b6000828152600260205260409020546001600160a01b0316610b525760405162461bcd60e51b815260206004820152602e60248201527f45524337323155524953746f726167653a2055524920736574206f66206e6f6e60448201526d32bc34b9ba32b73a103a37b5b2b760911b6064820152608401610448565b60008281526006602052604090206104e982826114a3565b816001600160a01b0316836001600160a01b031603610bcb5760405162461bcd60e51b815260206004820152601960248201527f4552433732313a20617070726f766520746f2063616c6c6572000000000000006044820152606401610448565b6001600160a01b03838116600081815260056020908152604080832094871680845294825291829020805460ff191686151590811790915591519182527f17307eab39ab6107e8899845ad3d59bd9653f200f220920489ca2b5937696c31910160405180910390a3505050565b610c43848484610921565b610c4f84848484610d12565b6106af5760405162461bcd60e51b815260040161044890611563565b6060610c76826107f3565b6000610c8d60408051602081019091526000815290565b90506000815111610cad5760405180602001604052806000815250610cd8565b80610cb784610e13565b604051602001610cc89291906113ea565b6040516020818303038152906040525b9392505050565b610ce98383610f14565b610cf66000848484610d12565b6104e95760405162461bcd60e51b815260040161044890611563565b60006001600160a01b0384163b15610e0857604051630a85bd0160e11b81526001600160a01b0385169063150b7a0290610d569033908990889088906004016115b5565b6020604051808303816000875af1925050508015610d91575060408051601f3d908101601f19168201909252610d8e918101906115f2565b60015b610dee573d808015610dbf576040519150601f19603f3d011682016040523d82523d6000602084013e610dc4565b606091505b508051600003610de65760405162461bcd60e51b815260040161044890611563565b805181602001fd5b6001600160e01b031916630a85bd0160e11b1490506107bd565b506001949350505050565b606081600003610e3a5750506040805180820190915260018152600360fc1b602082015290565b8160005b8115610e645780610e4e8161160f565b9150610e5d9050600a8361163e565b9150610e3e565b60008167ffffffffffffffff811115610e7f57610e7f611187565b6040519080825280601f01601f191660200182016040528015610ea9576020820181803683370190505b5090505b84156107bd57610ebe60018361142f565b9150610ecb600a86611652565b610ed6906030611442565b60f81b818381518110610eeb57610eeb611666565b60200101906001600160f81b031916908160001a905350610f0d600a8661163e565b9450610ead565b6001600160a01b038216610f6a5760405162461bcd60e51b815260206004820181905260248201527f4552433732313a206d696e7420746f20746865207a65726f20616464726573736044820152606401610448565b6000818152600260205260409020546001600160a01b031615610fcf5760405162461bcd60e51b815260206004820152601c60248201527f4552433732313a20746f6b656e20616c7265616479206d696e746564000000006044820152606401610448565b6001600160a01b0382166000908152600360205260408120805460019290610ff8908490611442565b909155505060008181526002602052604080822080546001600160a01b0319166001600160a01b03861690811790915590518392907fddf252ad1be2c89b69c2b068fc378daa952ba7f163c4a11628f55a4df523b3ef908290a45050565b6001600160e01b03198116811461085257600080fd5b60006020828403121561107e57600080fd5b8135610cd881611056565b60005b838110156110a457818101518382015260200161108c565b50506000910152565b600081518084526110c5816020860160208601611089565b601f01601f19169290920160200192915050565b602081526000610cd860208301846110ad565b6000602082840312156110fe57600080fd5b5035919050565b80356001600160a01b038116811461111c57600080fd5b919050565b6000806040838503121561113457600080fd5b61113d83611105565b946020939093013593505050565b60008060006060848603121561116057600080fd5b61116984611105565b925061117760208501611105565b9150604084013590509250925092565b634e487b7160e01b600052604160045260246000fd5b600067ffffffffffffffff808411156111b8576111b8611187565b604051601f8501601f19908116603f011681019082821181831017156111e0576111e0611187565b816040528093508581528686860111156111f957600080fd5b858560208301376000602087830101525050509392505050565b60006020828403121561122557600080fd5b813567ffffffffffffffff81111561123c57600080fd5b8201601f8101841361124d57600080fd5b6107bd8482356020840161119d565b60006020828403121561126e57600080fd5b610cd882611105565b6000806040838503121561128a57600080fd5b61129383611105565b9150602083013580151581146112a857600080fd5b809150509250929050565b600080600080608085870312156112c957600080fd5b6112d285611105565b93506112e060208601611105565b925060408501359150606085013567ffffffffffffffff81111561130357600080fd5b8501601f8101871361131457600080fd5b6113238782356020840161119d565b91505092959194509250565b6000806040838503121561134257600080fd5b61134b83611105565b915061135960208401611105565b90509250929050565b600181811c9082168061137657607f821691505b60208210810361139657634e487b7160e01b600052602260045260246000fd5b50919050565b6020808252602e908201527f4552433732313a2063616c6c6572206973206e6f7420746f6b656e206f776e6560408201526d1c881b9bdc88185c1c1c9bdd995960921b606082015260800190565b600083516113fc818460208801611089565b835190830190611410818360208801611089565b01949350505050565b634e487b7160e01b600052601160045260246000fd5b8181038181111561031557610315611419565b8082018082111561031557610315611419565b601f8211156104e957600081815260208120601f850160051c8101602086101561147c5750805b601f850160051c820191505b8181101561149b57828155600101611488565b505050505050565b815167ffffffffffffffff8111156114bd576114bd611187565b6114d1816114cb8454611362565b84611455565b602080601f83116001811461150657600084156114ee5750858301515b600019600386901b1c1916600185901b17855561149b565b600085815260208120601f198616915b8281101561153557888601518255948401946001909101908401611516565b50858210156115535787850151600019600388901b60f8161c191681555b5050505050600190811b01905550565b60208082526032908201527f4552433732313a207472616e7366657220746f206e6f6e20455243373231526560408201527131b2b4bb32b91034b6b83632b6b2b73a32b960711b606082015260800190565b6001600160a01b03858116825284166020820152604081018390526080606082018190526000906115e8908301846110ad565b9695505050505050565b60006020828403121561160457600080fd5b8151610cd881611056565b60006001820161162157611621611419565b5060010190565b634e487b7160e01b600052601260045260246000fd5b60008261164d5761164d611628565b500490565b60008261166157611661611628565b500690565b634e487b7160e01b600052603260045260246000fdfea2646970667358221220a1ec00cbc4dc77830f9468f40465871d42436824e562b66fbb90f33d16fb1e8564736f6c63430008100033",
  "sourcePath": "/home/lap15473/Desktop/pet-project/nft-marketplace/contracts/NftMarket.sol",
  "compiler": {
    "name": "solc",
    "version": "0.8.16+commit.07a7930e"
  },
  "functionHashes": {
    "approve(address,uint256)": "095ea7b3",
    "balanceOf(address)": "70a08231",
    "getApproved(uint256)": "081812fc",
    "isApprovedForAll(address,address)": "e985e9c5",
    "mintToken(string)": "33eba49a",
    "name()": "06fdde03",
    "ownerOf(uint256)": "6352211e",
    "safeTransferFrom(address,address,uint256)": "42842e0e",
    "safeTransferFrom(address,address,uint256,bytes)": "b88d4fde",
    "setApprovalForAll(address,bool)": "a22cb465",
    "supportsInterface(bytes4)": "01ffc9a7",
    "symbol()": "95d89b41",
    "tokenURI(uint256)": "c87b56dd",
    "transferFrom(address,address,uint256)": "23b872dd"
  },
  "gasEstimates": {
    "creation": {
      "codeDepositCost": "1162000",
      "executionCost": "infinite",
      "totalCost": "infinite"
    },
    "external": {
      "approve(address,uint256)": "infinite",
      "balanceOf(address)": "2634",
      "getApproved(uint256)": "4792",
      "isApprovedForAll(address,address)": "infinite",
      "mintToken(string)": "infinite",
      "name()": "infinite",
      "ownerOf(uint256)": "2561",
      "safeTransferFrom(address,address,uint256)": "infinite",
      "safeTransferFrom(address,address,uint256,bytes)": "infinite",
      "setApprovalForAll(address,bool)": "26705",
      "supportsInterface(bytes4)": "534",
      "symbol()": "infinite",
      "tokenURI(uint256)": "infinite",
      "transferFrom(address,address,uint256)": "infinite"
    }
  }
}