{
  "contractName": "NftMarket",
  "abi": [
    {
      "inputs": [],
      "stateMutability": "nonpayable",
      "type": "constructor"
    },
    {
      "anonymous": false,
      "inputs": [
        {
          "indexed": true,
          "internalType": "address",
          "name": "owner",
          "type": "address"
        },
        {
          "indexed": true,
          "internalType": "address",
          "name": "approved",
          "type": "address"
        },
        {
          "indexed": true,
          "internalType": "uint256",
          "name": "tokenId",
          "type": "uint256"
        }
      ],
      "name": "Approval",
      "type": "event"
    },
    {
      "anonymous": false,
      "inputs": [
        {
          "indexed": true,
          "internalType": "address",
          "name": "owner",
          "type": "address"
        },
        {
          "indexed": true,
          "internalType": "address",
          "name": "operator",
          "type": "address"
        },
        {
          "indexed": false,
          "internalType": "bool",
          "name": "approved",
          "type": "bool"
        }
      ],
      "name": "ApprovalForAll",
      "type": "event"
    },
    {
      "anonymous": false,
      "inputs": [
        {
          "indexed": true,
          "internalType": "address",
          "name": "from",
          "type": "address"
        },
        {
          "indexed": true,
          "internalType": "address",
          "name": "to",
          "type": "address"
        },
        {
          "indexed": true,
          "internalType": "uint256",
          "name": "tokenId",
          "type": "uint256"
        }
      ],
      "name": "Transfer",
      "type": "event"
    },
    {
      "inputs": [
        {
          "internalType": "address",
          "name": "to",
          "type": "address"
        },
        {
          "internalType": "uint256",
          "name": "tokenId",
          "type": "uint256"
        }
      ],
      "name": "approve",
      "outputs": [],
      "stateMutability": "nonpayable",
      "type": "function"
    },
    {
      "inputs": [
        {
          "internalType": "address",
          "name": "owner",
          "type": "address"
        }
      ],
      "name": "balanceOf",
      "outputs": [
        {
          "internalType": "uint256",
          "name": "",
          "type": "uint256"
        }
      ],
      "stateMutability": "view",
      "type": "function"
    },
    {
      "inputs": [
        {
          "internalType": "uint256",
          "name": "tokenId",
          "type": "uint256"
        }
      ],
      "name": "getApproved",
      "outputs": [
        {
          "internalType": "address",
          "name": "",
          "type": "address"
        }
      ],
      "stateMutability": "view",
      "type": "function"
    },
    {
      "inputs": [
        {
          "internalType": "address",
          "name": "owner",
          "type": "address"
        },
        {
          "internalType": "address",
          "name": "operator",
          "type": "address"
        }
      ],
      "name": "isApprovedForAll",
      "outputs": [
        {
          "internalType": "bool",
          "name": "",
          "type": "bool"
        }
      ],
      "stateMutability": "view",
      "type": "function"
    },
    {
      "inputs": [],
      "name": "name",
      "outputs": [
        {
          "internalType": "string",
          "name": "",
          "type": "string"
        }
      ],
      "stateMutability": "view",
      "type": "function"
    },
    {
      "inputs": [
        {
          "internalType": "uint256",
          "name": "tokenId",
          "type": "uint256"
        }
      ],
      "name": "ownerOf",
      "outputs": [
        {
          "internalType": "address",
          "name": "",
          "type": "address"
        }
      ],
      "stateMutability": "view",
      "type": "function"
    },
    {
      "inputs": [
        {
          "internalType": "address",
          "name": "from",
          "type": "address"
        },
        {
          "internalType": "address",
          "name": "to",
          "type": "address"
        },
        {
          "internalType": "uint256",
          "name": "tokenId",
          "type": "uint256"
        }
      ],
      "name": "safeTransferFrom",
      "outputs": [],
      "stateMutability": "nonpayable",
      "type": "function"
    },
    {
      "inputs": [
        {
          "internalType": "address",
          "name": "from",
          "type": "address"
        },
        {
          "internalType": "address",
          "name": "to",
          "type": "address"
        },
        {
          "internalType": "uint256",
          "name": "tokenId",
          "type": "uint256"
        },
        {
          "internalType": "bytes",
          "name": "data",
          "type": "bytes"
        }
      ],
      "name": "safeTransferFrom",
      "outputs": [],
      "stateMutability": "nonpayable",
      "type": "function"
    },
    {
      "inputs": [
        {
          "internalType": "address",
          "name": "operator",
          "type": "address"
        },
        {
          "internalType": "bool",
          "name": "approved",
          "type": "bool"
        }
      ],
      "name": "setApprovalForAll",
      "outputs": [],
      "stateMutability": "nonpayable",
      "type": "function"
    },
    {
      "inputs": [
        {
          "internalType": "bytes4",
          "name": "interfaceId",
          "type": "bytes4"
        }
      ],
      "name": "supportsInterface",
      "outputs": [
        {
          "internalType": "bool",
          "name": "",
          "type": "bool"
        }
      ],
      "stateMutability": "view",
      "type": "function"
    },
    {
      "inputs": [],
      "name": "symbol",
      "outputs": [
        {
          "internalType": "string",
          "name": "",
          "type": "string"
        }
      ],
      "stateMutability": "view",
      "type": "function"
    },
    {
      "inputs": [
        {
          "internalType": "uint256",
          "name": "tokenId",
          "type": "uint256"
        }
      ],
      "name": "tokenURI",
      "outputs": [
        {
          "internalType": "string",
          "name": "",
          "type": "string"
        }
      ],
      "stateMutability": "view",
      "type": "function"
    },
    {
      "inputs": [
        {
          "internalType": "address",
          "name": "from",
          "type": "address"
        },
        {
          "internalType": "address",
          "name": "to",
          "type": "address"
        },
        {
          "internalType": "uint256",
          "name": "tokenId",
          "type": "uint256"
        }
      ],
      "name": "transferFrom",
      "outputs": [],
      "stateMutability": "nonpayable",
      "type": "function"
    },
    {
      "inputs": [
        {
          "internalType": "string",
          "name": "tokenURI",
          "type": "string"
        }
      ],
      "name": "mintToken",
      "outputs": [
        {
          "internalType": "uint256",
          "name": "",
          "type": "uint256"
        }
      ],
      "stateMutability": "payable",
      "type": "function"
    }
  ],
  "bytecode": "0x60806040523480156200001157600080fd5b506040518060400160405280600c81526020017f4372656174757265734e465400000000000000000000000000000000000000008152506040518060400160405280600481526020017f434e465400000000000000000000000000000000000000000000000000000000815250816000908051906020019062000096929190620000b8565b508060019080519060200190620000af929190620000b8565b505050620001cc565b828054620000c69062000197565b90600052602060002090601f016020900481019282620000ea576000855562000136565b82601f106200010557805160ff191683800117855562000136565b8280016001018555821562000136579182015b828111156200013557825182559160200191906001019062000118565b5b50905062000145919062000149565b5090565b5b80821115620001645760008160009055506001016200014a565b5090565b7f4e487b7100000000000000000000000000000000000000000000000000000000600052602260045260246000fd5b60006002820490506001821680620001b057607f821691505b602082108103620001c657620001c562000168565b5b50919050565b61299980620001dc6000396000f3fe6080604052600436106100dd5760003560e01c80636352211e1161007f578063a22cb46511610059578063a22cb465146102d7578063b88d4fde14610300578063c87b56dd14610329578063e985e9c514610366576100dd565b80636352211e1461023257806370a082311461026f57806395d89b41146102ac576100dd565b8063095ea7b3116100bb578063095ea7b31461018757806323b872dd146101b057806333eba49a146101d957806342842e0e14610209576100dd565b806301ffc9a7146100e257806306fdde031461011f578063081812fc1461014a575b600080fd5b3480156100ee57600080fd5b506101096004803603810190610104919061197e565b6103a3565b60405161011691906119c6565b60405180910390f35b34801561012b57600080fd5b50610134610485565b6040516101419190611a7a565b60405180910390f35b34801561015657600080fd5b50610171600480360381019061016c9190611ad2565b610517565b60405161017e9190611b40565b60405180910390f35b34801561019357600080fd5b506101ae60048036038101906101a99190611b87565b61055d565b005b3480156101bc57600080fd5b506101d760048036038101906101d29190611bc7565b610674565b005b6101f360048036038101906101ee9190611d4f565b6106d4565b6040516102009190611da7565b60405180910390f35b34801561021557600080fd5b50610230600480360381019061022b9190611bc7565b610715565b005b34801561023e57600080fd5b5061025960048036038101906102549190611ad2565b610735565b6040516102669190611b40565b60405180910390f35b34801561027b57600080fd5b5061029660048036038101906102919190611dc2565b6107e6565b6040516102a39190611da7565b60405180910390f35b3480156102b857600080fd5b506102c161089d565b6040516102ce9190611a7a565b60405180910390f35b3480156102e357600080fd5b506102fe60048036038101906102f99190611e1b565b61092f565b005b34801561030c57600080fd5b5061032760048036038101906103229190611efc565b610945565b005b34801561033557600080fd5b50610350600480360381019061034b9190611ad2565b6109a7565b60405161035d9190611a7a565b60405180910390f35b34801561037257600080fd5b5061038d60048036038101906103889190611f7f565b610ab9565b60405161039a91906119c6565b60405180910390f35b60007f80ac58cd000000000000000000000000000000000000000000000000000000007bffffffffffffffffffffffffffffffffffffffffffffffffffffffff1916827bffffffffffffffffffffffffffffffffffffffffffffffffffffffff1916148061046e57507f5b5e139f000000000000000000000000000000000000000000000000000000007bffffffffffffffffffffffffffffffffffffffffffffffffffffffff1916827bffffffffffffffffffffffffffffffffffffffffffffffffffffffff1916145b8061047e575061047d82610b4d565b5b9050919050565b60606000805461049490611fee565b80601f01602080910402602001604051908101604052809291908181526020018280546104c090611fee565b801561050d5780601f106104e25761010080835404028352916020019161050d565b820191906000526020600020905b8154815290600101906020018083116104f057829003601f168201915b5050505050905090565b600061052282610bb7565b6004600083815260200190815260200160002060009054906101000a900473ffffffffffffffffffffffffffffffffffffffff169050919050565b600061056882610735565b90508073ffffffffffffffffffffffffffffffffffffffff168373ffffffffffffffffffffffffffffffffffffffff16036105d8576040517f08c379a00000000000000000000000000000000000000000000000000000000081526004016105cf90612091565b60405180910390fd5b8073ffffffffffffffffffffffffffffffffffffffff166105f7610c02565b73ffffffffffffffffffffffffffffffffffffffff161480610626575061062581610620610c02565b610ab9565b5b610665576040517f08c379a000000000000000000000000000000000000000000000000000000000815260040161065c90612123565b60405180910390fd5b61066f8383610c0a565b505050565b61068561067f610c02565b82610cc3565b6106c4576040517f08c379a00000000000000000000000000000000000000000000000000000000081526004016106bb906121b5565b60405180910390fd5b6106cf838383610d58565b505050565b60006106e06008610fbe565b6106ea6007610fbe565b60006106f66008610fd4565b90506107023382610fe2565b61070c8184611000565b80915050919050565b61073083838360405180602001604052806000815250610945565b505050565b6000806002600084815260200190815260200160002060009054906101000a900473ffffffffffffffffffffffffffffffffffffffff169050600073ffffffffffffffffffffffffffffffffffffffff168173ffffffffffffffffffffffffffffffffffffffff16036107dd576040517f08c379a00000000000000000000000000000000000000000000000000000000081526004016107d490612221565b60405180910390fd5b80915050919050565b60008073ffffffffffffffffffffffffffffffffffffffff168273ffffffffffffffffffffffffffffffffffffffff1603610856576040517f08c379a000000000000000000000000000000000000000000000000000000000815260040161084d906122b3565b60405180910390fd5b600360008373ffffffffffffffffffffffffffffffffffffffff1673ffffffffffffffffffffffffffffffffffffffff168152602001908152602001600020549050919050565b6060600180546108ac90611fee565b80601f01602080910402602001604051908101604052809291908181526020018280546108d890611fee565b80156109255780601f106108fa57610100808354040283529160200191610925565b820191906000526020600020905b81548152906001019060200180831161090857829003601f168201915b5050505050905090565b61094161093a610c02565b8383611074565b5050565b610956610950610c02565b83610cc3565b610995576040517f08c379a000000000000000000000000000000000000000000000000000000000815260040161098c906121b5565b60405180910390fd5b6109a1848484846111e0565b50505050565b60606109b282610bb7565b60006006600084815260200190815260200160002080546109d290611fee565b80601f01602080910402602001604051908101604052809291908181526020018280546109fe90611fee565b8015610a4b5780601f10610a2057610100808354040283529160200191610a4b565b820191906000526020600020905b815481529060010190602001808311610a2e57829003601f168201915b505050505090506000610a5c61123c565b90506000815103610a71578192505050610ab4565b600082511115610aa6578082604051602001610a8e92919061230f565b60405160208183030381529060405292505050610ab4565b610aaf84611253565b925050505b919050565b6000600560008473ffffffffffffffffffffffffffffffffffffffff1673ffffffffffffffffffffffffffffffffffffffff16815260200190815260200160002060008373ffffffffffffffffffffffffffffffffffffffff1673ffffffffffffffffffffffffffffffffffffffff16815260200190815260200160002060009054906101000a900460ff16905092915050565b60007f01ffc9a7000000000000000000000000000000000000000000000000000000007bffffffffffffffffffffffffffffffffffffffffffffffffffffffff1916827bffffffffffffffffffffffffffffffffffffffffffffffffffffffff1916149050919050565b610bc0816112bb565b610bff576040517f08c379a0000000000000000000000000000000000000000000000000000000008152600401610bf690612221565b60405180910390fd5b50565b600033905090565b816004600083815260200190815260200160002060006101000a81548173ffffffffffffffffffffffffffffffffffffffff021916908373ffffffffffffffffffffffffffffffffffffffff160217905550808273ffffffffffffffffffffffffffffffffffffffff16610c7d83610735565b73ffffffffffffffffffffffffffffffffffffffff167f8c5be1e5ebec7d5bd14f71427d1e84f3dd0314c0f7b2291e5b200ac8c7c3b92560405160405180910390a45050565b600080610ccf83610735565b90508073ffffffffffffffffffffffffffffffffffffffff168473ffffffffffffffffffffffffffffffffffffffff161480610d115750610d108185610ab9565b5b80610d4f57508373ffffffffffffffffffffffffffffffffffffffff16610d3784610517565b73ffffffffffffffffffffffffffffffffffffffff16145b91505092915050565b8273ffffffffffffffffffffffffffffffffffffffff16610d7882610735565b73ffffffffffffffffffffffffffffffffffffffff1614610dce576040517f08c379a0000000000000000000000000000000000000000000000000000000008152600401610dc5906123a5565b60405180910390fd5b600073ffffffffffffffffffffffffffffffffffffffff168273ffffffffffffffffffffffffffffffffffffffff1603610e3d576040517f08c379a0000000000000000000000000000000000000000000000000000000008152600401610e3490612437565b60405180910390fd5b610e48838383611327565b610e53600082610c0a565b6001600360008573ffffffffffffffffffffffffffffffffffffffff1673ffffffffffffffffffffffffffffffffffffffff1681526020019081526020016000206000828254610ea39190612486565b925050819055506001600360008473ffffffffffffffffffffffffffffffffffffffff1673ffffffffffffffffffffffffffffffffffffffff1681526020019081526020016000206000828254610efa91906124ba565b92505081905550816002600083815260200190815260200160002060006101000a81548173ffffffffffffffffffffffffffffffffffffffff021916908373ffffffffffffffffffffffffffffffffffffffff160217905550808273ffffffffffffffffffffffffffffffffffffffff168473ffffffffffffffffffffffffffffffffffffffff167fddf252ad1be2c89b69c2b068fc378daa952ba7f163c4a11628f55a4df523b3ef60405160405180910390a4610fb983838361132c565b505050565b6001816000016000828254019250508190555050565b600081600001549050919050565b610ffc828260405180602001604052806000815250611331565b5050565b611009826112bb565b611048576040517f08c379a000000000000000000000000000000000000000000000000000000000815260040161103f90612582565b60405180910390fd5b8060066000848152602001908152602001600020908051906020019061106f92919061186f565b505050565b8173ffffffffffffffffffffffffffffffffffffffff168373ffffffffffffffffffffffffffffffffffffffff16036110e2576040517f08c379a00000000000000000000000000000000000000000000000000000000081526004016110d9906125ee565b60405180910390fd5b80600560008573ffffffffffffffffffffffffffffffffffffffff1673ffffffffffffffffffffffffffffffffffffffff16815260200190815260200160002060008473ffffffffffffffffffffffffffffffffffffffff1673ffffffffffffffffffffffffffffffffffffffff16815260200190815260200160002060006101000a81548160ff0219169083151502179055508173ffffffffffffffffffffffffffffffffffffffff168373ffffffffffffffffffffffffffffffffffffffff167f17307eab39ab6107e8899845ad3d59bd9653f200f220920489ca2b5937696c31836040516111d391906119c6565b60405180910390a3505050565b6111eb848484610d58565b6111f78484848461138c565b611236576040517f08c379a000000000000000000000000000000000000000000000000000000000815260040161122d90612680565b60405180910390fd5b50505050565b606060405180602001604052806000815250905090565b606061125e82610bb7565b600061126861123c565b9050600081511161128857604051806020016040528060008152506112b3565b8061129284611513565b6040516020016112a392919061230f565b6040516020818303038152906040525b915050919050565b60008073ffffffffffffffffffffffffffffffffffffffff166002600084815260200190815260200160002060009054906101000a900473ffffffffffffffffffffffffffffffffffffffff1673ffffffffffffffffffffffffffffffffffffffff1614159050919050565b505050565b505050565b61133b8383611673565b611348600084848461138c565b611387576040517f08c379a000000000000000000000000000000000000000000000000000000000815260040161137e90612680565b60405180910390fd5b505050565b60006113ad8473ffffffffffffffffffffffffffffffffffffffff1661184c565b15611506578373ffffffffffffffffffffffffffffffffffffffff1663150b7a026113d6610c02565b8786866040518563ffffffff1660e01b81526004016113f894939291906126f5565b6020604051808303816000875af192505050801561143457506040513d601f19601f820116820180604052508101906114319190612756565b60015b6114b6573d8060008114611464576040519150601f19603f3d011682016040523d82523d6000602084013e611469565b606091505b5060008151036114ae576040517f08c379a00000000000000000000000000000000000000000000000000000000081526004016114a590612680565b60405180910390fd5b805181602001fd5b63150b7a0260e01b7bffffffffffffffffffffffffffffffffffffffffffffffffffffffff1916817bffffffffffffffffffffffffffffffffffffffffffffffffffffffff19161491505061150b565b600190505b949350505050565b60606000820361155a576040518060400160405280600181526020017f3000000000000000000000000000000000000000000000000000000000000000815250905061166e565b600082905060005b6000821461158c57808061157590612783565b915050600a8261158591906127fa565b9150611562565b60008167ffffffffffffffff8111156115a8576115a7611c24565b5b6040519080825280601f01601f1916602001820160405280156115da5781602001600182028036833780820191505090505b5090505b60008514611667576001826115f39190612486565b9150600a85611602919061282b565b603061160e91906124ba565b60f81b8183815181106116245761162361285c565b5b60200101907effffffffffffffffffffffffffffffffffffffffffffffffffffffffffffff1916908160001a905350600a8561166091906127fa565b94506115de565b8093505050505b919050565b600073ffffffffffffffffffffffffffffffffffffffff168273ffffffffffffffffffffffffffffffffffffffff16036116e2576040517f08c379a00000000000000000000000000000000000000000000000000000000081526004016116d9906128d7565b60405180910390fd5b6116eb816112bb565b1561172b576040517f08c379a000000000000000000000000000000000000000000000000000000000815260040161172290612943565b60405180910390fd5b61173760008383611327565b6001600360008473ffffffffffffffffffffffffffffffffffffffff1673ffffffffffffffffffffffffffffffffffffffff168152602001908152602001600020600082825461178791906124ba565b92505081905550816002600083815260200190815260200160002060006101000a81548173ffffffffffffffffffffffffffffffffffffffff021916908373ffffffffffffffffffffffffffffffffffffffff160217905550808273ffffffffffffffffffffffffffffffffffffffff16600073ffffffffffffffffffffffffffffffffffffffff167fddf252ad1be2c89b69c2b068fc378daa952ba7f163c4a11628f55a4df523b3ef60405160405180910390a46118486000838361132c565b5050565b6000808273ffffffffffffffffffffffffffffffffffffffff163b119050919050565b82805461187b90611fee565b90600052602060002090601f01602090048101928261189d57600085556118e4565b82601f106118b657805160ff19168380011785556118e4565b828001600101855582156118e4579182015b828111156118e35782518255916020019190600101906118c8565b5b5090506118f191906118f5565b5090565b5b8082111561190e5760008160009055506001016118f6565b5090565b6000604051905090565b600080fd5b600080fd5b60007fffffffff0000000000000000000000000000000000000000000000000000000082169050919050565b61195b81611926565b811461196657600080fd5b50565b60008135905061197881611952565b92915050565b6000602082840312156119945761199361191c565b5b60006119a284828501611969565b91505092915050565b60008115159050919050565b6119c0816119ab565b82525050565b60006020820190506119db60008301846119b7565b92915050565b600081519050919050565b600082825260208201905092915050565b60005b83811015611a1b578082015181840152602081019050611a00565b83811115611a2a576000848401525b50505050565b6000601f19601f8301169050919050565b6000611a4c826119e1565b611a5681856119ec565b9350611a668185602086016119fd565b611a6f81611a30565b840191505092915050565b60006020820190508181036000830152611a948184611a41565b905092915050565b6000819050919050565b611aaf81611a9c565b8114611aba57600080fd5b50565b600081359050611acc81611aa6565b92915050565b600060208284031215611ae857611ae761191c565b5b6000611af684828501611abd565b91505092915050565b600073ffffffffffffffffffffffffffffffffffffffff82169050919050565b6000611b2a82611aff565b9050919050565b611b3a81611b1f565b82525050565b6000602082019050611b556000830184611b31565b92915050565b611b6481611b1f565b8114611b6f57600080fd5b50565b600081359050611b8181611b5b565b92915050565b60008060408385031215611b9e57611b9d61191c565b5b6000611bac85828601611b72565b9250506020611bbd85828601611abd565b9150509250929050565b600080600060608486031215611be057611bdf61191c565b5b6000611bee86828701611b72565b9350506020611bff86828701611b72565b9250506040611c1086828701611abd565b9150509250925092565b600080fd5b600080fd5b7f4e487b7100000000000000000000000000000000000000000000000000000000600052604160045260246000fd5b611c5c82611a30565b810181811067ffffffffffffffff82111715611c7b57611c7a611c24565b5b80604052505050565b6000611c8e611912565b9050611c9a8282611c53565b919050565b600067ffffffffffffffff821115611cba57611cb9611c24565b5b611cc382611a30565b9050602081019050919050565b82818337600083830152505050565b6000611cf2611ced84611c9f565b611c84565b905082815260208101848484011115611d0e57611d0d611c1f565b5b611d19848285611cd0565b509392505050565b600082601f830112611d3657611d35611c1a565b5b8135611d46848260208601611cdf565b91505092915050565b600060208284031215611d6557611d6461191c565b5b600082013567ffffffffffffffff811115611d8357611d82611921565b5b611d8f84828501611d21565b91505092915050565b611da181611a9c565b82525050565b6000602082019050611dbc6000830184611d98565b92915050565b600060208284031215611dd857611dd761191c565b5b6000611de684828501611b72565b91505092915050565b611df8816119ab565b8114611e0357600080fd5b50565b600081359050611e1581611def565b92915050565b60008060408385031215611e3257611e3161191c565b5b6000611e4085828601611b72565b9250506020611e5185828601611e06565b9150509250929050565b600067ffffffffffffffff821115611e7657611e75611c24565b5b611e7f82611a30565b9050602081019050919050565b6000611e9f611e9a84611e5b565b611c84565b905082815260208101848484011115611ebb57611eba611c1f565b5b611ec6848285611cd0565b509392505050565b600082601f830112611ee357611ee2611c1a565b5b8135611ef3848260208601611e8c565b91505092915050565b60008060008060808587031215611f1657611f1561191c565b5b6000611f2487828801611b72565b9450506020611f3587828801611b72565b9350506040611f4687828801611abd565b925050606085013567ffffffffffffffff811115611f6757611f66611921565b5b611f7387828801611ece565b91505092959194509250565b60008060408385031215611f9657611f9561191c565b5b6000611fa485828601611b72565b9250506020611fb585828601611b72565b9150509250929050565b7f4e487b7100000000000000000000000000000000000000000000000000000000600052602260045260246000fd5b6000600282049050600182168061200657607f821691505b60208210810361201957612018611fbf565b5b50919050565b7f4552433732313a20617070726f76616c20746f2063757272656e74206f776e6560008201527f7200000000000000000000000000000000000000000000000000000000000000602082015250565b600061207b6021836119ec565b91506120868261201f565b604082019050919050565b600060208201905081810360008301526120aa8161206e565b9050919050565b7f4552433732313a20617070726f76652063616c6c6572206973206e6f7420746f60008201527f6b656e206f776e6572206e6f7220617070726f76656420666f7220616c6c0000602082015250565b600061210d603e836119ec565b9150612118826120b1565b604082019050919050565b6000602082019050818103600083015261213c81612100565b9050919050565b7f4552433732313a2063616c6c6572206973206e6f7420746f6b656e206f776e6560008201527f72206e6f7220617070726f766564000000000000000000000000000000000000602082015250565b600061219f602e836119ec565b91506121aa82612143565b604082019050919050565b600060208201905081810360008301526121ce81612192565b9050919050565b7f4552433732313a20696e76616c696420746f6b656e2049440000000000000000600082015250565b600061220b6018836119ec565b9150612216826121d5565b602082019050919050565b6000602082019050818103600083015261223a816121fe565b9050919050565b7f4552433732313a2061646472657373207a65726f206973206e6f74206120766160008201527f6c6964206f776e65720000000000000000000000000000000000000000000000602082015250565b600061229d6029836119ec565b91506122a882612241565b604082019050919050565b600060208201905081810360008301526122cc81612290565b9050919050565b600081905092915050565b60006122e9826119e1565b6122f381856122d3565b93506123038185602086016119fd565b80840191505092915050565b600061231b82856122de565b915061232782846122de565b91508190509392505050565b7f4552433732313a207472616e736665722066726f6d20696e636f72726563742060008201527f6f776e6572000000000000000000000000000000000000000000000000000000602082015250565b600061238f6025836119ec565b915061239a82612333565b604082019050919050565b600060208201905081810360008301526123be81612382565b9050919050565b7f4552433732313a207472616e7366657220746f20746865207a65726f2061646460008201527f7265737300000000000000000000000000000000000000000000000000000000602082015250565b60006124216024836119ec565b915061242c826123c5565b604082019050919050565b6000602082019050818103600083015261245081612414565b9050919050565b7f4e487b7100000000000000000000000000000000000000000000000000000000600052601160045260246000fd5b600061249182611a9c565b915061249c83611a9c565b9250828210156124af576124ae612457565b5b828203905092915050565b60006124c582611a9c565b91506124d083611a9c565b9250827fffffffffffffffffffffffffffffffffffffffffffffffffffffffffffffffff0382111561250557612504612457565b5b828201905092915050565b7f45524337323155524953746f726167653a2055524920736574206f66206e6f6e60008201527f6578697374656e7420746f6b656e000000000000000000000000000000000000602082015250565b600061256c602e836119ec565b915061257782612510565b604082019050919050565b6000602082019050818103600083015261259b8161255f565b9050919050565b7f4552433732313a20617070726f766520746f2063616c6c657200000000000000600082015250565b60006125d86019836119ec565b91506125e3826125a2565b602082019050919050565b60006020820190508181036000830152612607816125cb565b9050919050565b7f4552433732313a207472616e7366657220746f206e6f6e20455243373231526560008201527f63656976657220696d706c656d656e7465720000000000000000000000000000602082015250565b600061266a6032836119ec565b91506126758261260e565b604082019050919050565b600060208201905081810360008301526126998161265d565b9050919050565b600081519050919050565b600082825260208201905092915050565b60006126c7826126a0565b6126d181856126ab565b93506126e18185602086016119fd565b6126ea81611a30565b840191505092915050565b600060808201905061270a6000830187611b31565b6127176020830186611b31565b6127246040830185611d98565b818103606083015261273681846126bc565b905095945050505050565b60008151905061275081611952565b92915050565b60006020828403121561276c5761276b61191c565b5b600061277a84828501612741565b91505092915050565b600061278e82611a9c565b91507fffffffffffffffffffffffffffffffffffffffffffffffffffffffffffffffff82036127c0576127bf612457565b5b600182019050919050565b7f4e487b7100000000000000000000000000000000000000000000000000000000600052601260045260246000fd5b600061280582611a9c565b915061281083611a9c565b9250826128205761281f6127cb565b5b828204905092915050565b600061283682611a9c565b915061284183611a9c565b925082612851576128506127cb565b5b828206905092915050565b7f4e487b7100000000000000000000000000000000000000000000000000000000600052603260045260246000fd5b7f4552433732313a206d696e7420746f20746865207a65726f2061646472657373600082015250565b60006128c16020836119ec565b91506128cc8261288b565b602082019050919050565b600060208201905081810360008301526128f0816128b4565b9050919050565b7f4552433732313a20746f6b656e20616c7265616479206d696e74656400000000600082015250565b600061292d601c836119ec565b9150612938826128f7565b602082019050919050565b6000602082019050818103600083015261295c81612920565b905091905056fea2646970667358221220857522e9f5619b741d91bbd60edd6b67951e89a5b0940aaef05756a23e2fb94764736f6c634300080d0033",
  "immutableReferences": {},
  "source": "// SPDX-License-Identifier: MIT\npragma solidity >=0.4.22 <0.9.0;\n\nimport \"@openzeppelin/contracts/token/ERC721/extensions/ERC721URIStorage.sol\";\nimport \"@openzeppelin/contracts/utils/Counters.sol\";\n\ncontract NftMarket is ERC721URIStorage {\n    using Counters for Counters.Counter;\n\n    Counters.Counter private _listedItems;\n    Counters.Counter private _tokenIds;\n\n    constructor() ERC721(\"CreaturesNFT\", \"CNFT\") {}\n\n    function mintToken(string memory tokenURI)\n        public\n        payable\n        returns (uint256)\n    {\n        _tokenIds.increment();\n        _listedItems.increment();\n\n        uint256 newTokenId = _tokenIds.current();\n\n        _safeMint(msg.sender, newTokenId);\n        _setTokenURI(newTokenId, tokenURI);\n\n        return newTokenId;\n    }\n}\n",
  "sourcePath": "/home/lap15473/Desktop/pet-project/nft-marketplace/contracts/NftMarket.sol",
  "compiler": {
    "name": "solc",
    "version": "0.8.13+commit.abaa5c0e.Emscripten.clang"
  },
  "schemaVersion": "3.4.9",
  "updatedAt": "2022-09-07T07:45:12.548Z",
  "devdoc": {
    "kind": "dev",
    "methods": {
      "approve(address,uint256)": {
        "details": "See {IERC721-approve}."
      },
      "balanceOf(address)": {
        "details": "See {IERC721-balanceOf}."
      },
      "getApproved(uint256)": {
        "details": "See {IERC721-getApproved}."
      },
      "isApprovedForAll(address,address)": {
        "details": "See {IERC721-isApprovedForAll}."
      },
      "name()": {
        "details": "See {IERC721Metadata-name}."
      },
      "ownerOf(uint256)": {
        "details": "See {IERC721-ownerOf}."
      },
      "safeTransferFrom(address,address,uint256)": {
        "details": "See {IERC721-safeTransferFrom}."
      },
      "safeTransferFrom(address,address,uint256,bytes)": {
        "details": "See {IERC721-safeTransferFrom}."
      },
      "setApprovalForAll(address,bool)": {
        "details": "See {IERC721-setApprovalForAll}."
      },
      "supportsInterface(bytes4)": {
        "details": "See {IERC165-supportsInterface}."
      },
      "symbol()": {
        "details": "See {IERC721Metadata-symbol}."
      },
      "tokenURI(uint256)": {
        "details": "See {IERC721Metadata-tokenURI}."
      },
      "transferFrom(address,address,uint256)": {
        "details": "See {IERC721-transferFrom}."
      }
    },
    "version": 1
  },
  "userdoc": {
    "kind": "user",
    "methods": {},
    "version": 1
  }
}