{
  "contractName": "NftMarket",
  "abi": [
    {
      "inputs": [],
      "stateMutability": "nonpayable",
      "type": "constructor"
    },
    {
      "anonymous": false,
      "inputs": [
        {
          "indexed": true,
          "internalType": "address",
          "name": "owner",
          "type": "address"
        },
        {
          "indexed": true,
          "internalType": "address",
          "name": "approved",
          "type": "address"
        },
        {
          "indexed": true,
          "internalType": "uint256",
          "name": "tokenId",
          "type": "uint256"
        }
      ],
      "name": "Approval",
      "type": "event"
    },
    {
      "anonymous": false,
      "inputs": [
        {
          "indexed": true,
          "internalType": "address",
          "name": "owner",
          "type": "address"
        },
        {
          "indexed": true,
          "internalType": "address",
          "name": "operator",
          "type": "address"
        },
        {
          "indexed": false,
          "internalType": "bool",
          "name": "approved",
          "type": "bool"
        }
      ],
      "name": "ApprovalForAll",
      "type": "event"
    },
    {
      "anonymous": false,
      "inputs": [
        {
          "indexed": false,
          "internalType": "uint256",
          "name": "tokenId",
          "type": "uint256"
        },
        {
          "indexed": false,
          "internalType": "uint256",
          "name": "price",
          "type": "uint256"
        },
        {
          "indexed": false,
          "internalType": "address",
          "name": "creator",
          "type": "address"
        },
        {
          "indexed": false,
          "internalType": "bool",
          "name": "isListed",
          "type": "bool"
        }
      ],
      "name": "NftItemCreated",
      "type": "event"
    },
    {
      "anonymous": false,
      "inputs": [
        {
          "indexed": true,
          "internalType": "address",
          "name": "previousOwner",
          "type": "address"
        },
        {
          "indexed": true,
          "internalType": "address",
          "name": "newOwner",
          "type": "address"
        }
      ],
      "name": "OwnershipTransferred",
      "type": "event"
    },
    {
      "anonymous": false,
      "inputs": [
        {
          "indexed": true,
          "internalType": "address",
          "name": "from",
          "type": "address"
        },
        {
          "indexed": true,
          "internalType": "address",
          "name": "to",
          "type": "address"
        },
        {
          "indexed": true,
          "internalType": "uint256",
          "name": "tokenId",
          "type": "uint256"
        }
      ],
      "name": "Transfer",
      "type": "event"
    },
    {
      "inputs": [
        {
          "internalType": "address",
          "name": "to",
          "type": "address"
        },
        {
          "internalType": "uint256",
          "name": "tokenId",
          "type": "uint256"
        }
      ],
      "name": "approve",
      "outputs": [],
      "stateMutability": "nonpayable",
      "type": "function"
    },
    {
      "inputs": [
        {
          "internalType": "address",
          "name": "owner",
          "type": "address"
        }
      ],
      "name": "balanceOf",
      "outputs": [
        {
          "internalType": "uint256",
          "name": "",
          "type": "uint256"
        }
      ],
      "stateMutability": "view",
      "type": "function",
      "constant": true
    },
    {
      "inputs": [
        {
          "internalType": "uint256",
          "name": "tokenId",
          "type": "uint256"
        }
      ],
      "name": "getApproved",
      "outputs": [
        {
          "internalType": "address",
          "name": "",
          "type": "address"
        }
      ],
      "stateMutability": "view",
      "type": "function",
      "constant": true
    },
    {
      "inputs": [
        {
          "internalType": "address",
          "name": "owner",
          "type": "address"
        },
        {
          "internalType": "address",
          "name": "operator",
          "type": "address"
        }
      ],
      "name": "isApprovedForAll",
      "outputs": [
        {
          "internalType": "bool",
          "name": "",
          "type": "bool"
        }
      ],
      "stateMutability": "view",
      "type": "function",
      "constant": true
    },
    {
      "inputs": [],
      "name": "listingPrice",
      "outputs": [
        {
          "internalType": "uint256",
          "name": "",
          "type": "uint256"
        }
      ],
      "stateMutability": "view",
      "type": "function",
      "constant": true
    },
    {
      "inputs": [],
      "name": "name",
      "outputs": [
        {
          "internalType": "string",
          "name": "",
          "type": "string"
        }
      ],
      "stateMutability": "view",
      "type": "function",
      "constant": true
    },
    {
      "inputs": [],
      "name": "owner",
      "outputs": [
        {
          "internalType": "address",
          "name": "",
          "type": "address"
        }
      ],
      "stateMutability": "view",
      "type": "function",
      "constant": true
    },
    {
      "inputs": [
        {
          "internalType": "uint256",
          "name": "tokenId",
          "type": "uint256"
        }
      ],
      "name": "ownerOf",
      "outputs": [
        {
          "internalType": "address",
          "name": "",
          "type": "address"
        }
      ],
      "stateMutability": "view",
      "type": "function",
      "constant": true
    },
    {
      "inputs": [],
      "name": "renounceOwnership",
      "outputs": [],
      "stateMutability": "nonpayable",
      "type": "function"
    },
    {
      "inputs": [
        {
          "internalType": "address",
          "name": "from",
          "type": "address"
        },
        {
          "internalType": "address",
          "name": "to",
          "type": "address"
        },
        {
          "internalType": "uint256",
          "name": "tokenId",
          "type": "uint256"
        }
      ],
      "name": "safeTransferFrom",
      "outputs": [],
      "stateMutability": "nonpayable",
      "type": "function"
    },
    {
      "inputs": [
        {
          "internalType": "address",
          "name": "from",
          "type": "address"
        },
        {
          "internalType": "address",
          "name": "to",
          "type": "address"
        },
        {
          "internalType": "uint256",
          "name": "tokenId",
          "type": "uint256"
        },
        {
          "internalType": "bytes",
          "name": "data",
          "type": "bytes"
        }
      ],
      "name": "safeTransferFrom",
      "outputs": [],
      "stateMutability": "nonpayable",
      "type": "function"
    },
    {
      "inputs": [
        {
          "internalType": "address",
          "name": "operator",
          "type": "address"
        },
        {
          "internalType": "bool",
          "name": "approved",
          "type": "bool"
        }
      ],
      "name": "setApprovalForAll",
      "outputs": [],
      "stateMutability": "nonpayable",
      "type": "function"
    },
    {
      "inputs": [
        {
          "internalType": "bytes4",
          "name": "interfaceId",
          "type": "bytes4"
        }
      ],
      "name": "supportsInterface",
      "outputs": [
        {
          "internalType": "bool",
          "name": "",
          "type": "bool"
        }
      ],
      "stateMutability": "view",
      "type": "function",
      "constant": true
    },
    {
      "inputs": [],
      "name": "symbol",
      "outputs": [
        {
          "internalType": "string",
          "name": "",
          "type": "string"
        }
      ],
      "stateMutability": "view",
      "type": "function",
      "constant": true
    },
    {
      "inputs": [
        {
          "internalType": "uint256",
          "name": "tokenId",
          "type": "uint256"
        }
      ],
      "name": "tokenURI",
      "outputs": [
        {
          "internalType": "string",
          "name": "",
          "type": "string"
        }
      ],
      "stateMutability": "view",
      "type": "function",
      "constant": true
    },
    {
      "inputs": [
        {
          "internalType": "address",
          "name": "from",
          "type": "address"
        },
        {
          "internalType": "address",
          "name": "to",
          "type": "address"
        },
        {
          "internalType": "uint256",
          "name": "tokenId",
          "type": "uint256"
        }
      ],
      "name": "transferFrom",
      "outputs": [],
      "stateMutability": "nonpayable",
      "type": "function"
    },
    {
      "inputs": [
        {
          "internalType": "address",
          "name": "newOwner",
          "type": "address"
        }
      ],
      "name": "transferOwnership",
      "outputs": [],
      "stateMutability": "nonpayable",
      "type": "function"
    },
    {
      "inputs": [
        {
          "internalType": "uint256",
          "name": "newPrice",
          "type": "uint256"
        }
      ],
      "name": "setListingPrice",
      "outputs": [],
      "stateMutability": "nonpayable",
      "type": "function"
    },
    {
      "inputs": [
        {
          "internalType": "uint256",
          "name": "tokenId",
          "type": "uint256"
        }
      ],
      "name": "getNftItem",
      "outputs": [
        {
          "components": [
            {
              "internalType": "uint256",
              "name": "tokenId",
              "type": "uint256"
            },
            {
              "internalType": "uint256",
              "name": "price",
              "type": "uint256"
            },
            {
              "internalType": "address",
              "name": "creator",
              "type": "address"
            },
            {
              "internalType": "bool",
              "name": "isListed",
              "type": "bool"
            }
          ],
          "internalType": "struct NftMarket.NftItem",
          "name": "",
          "type": "tuple"
        }
      ],
      "stateMutability": "view",
      "type": "function",
      "constant": true
    },
    {
      "inputs": [],
      "name": "listedItemsCount",
      "outputs": [
        {
          "internalType": "uint256",
          "name": "",
          "type": "uint256"
        }
      ],
      "stateMutability": "view",
      "type": "function",
      "constant": true
    },
    {
      "inputs": [
        {
          "internalType": "string",
          "name": "tokenURI",
          "type": "string"
        }
      ],
      "name": "tokenURIExists",
      "outputs": [
        {
          "internalType": "bool",
          "name": "",
          "type": "bool"
        }
      ],
      "stateMutability": "view",
      "type": "function",
      "constant": true
    },
    {
      "inputs": [],
      "name": "totalSupply",
      "outputs": [
        {
          "internalType": "uint256",
          "name": "",
          "type": "uint256"
        }
      ],
      "stateMutability": "view",
      "type": "function",
      "constant": true
    },
    {
      "inputs": [
        {
          "internalType": "uint256",
          "name": "index",
          "type": "uint256"
        }
      ],
      "name": "tokenByIndex",
      "outputs": [
        {
          "internalType": "uint256",
          "name": "",
          "type": "uint256"
        }
      ],
      "stateMutability": "view",
      "type": "function",
      "constant": true
    },
    {
      "inputs": [
        {
          "internalType": "address",
          "name": "owner",
          "type": "address"
        },
        {
          "internalType": "uint256",
          "name": "index",
          "type": "uint256"
        }
      ],
      "name": "tokenOfOwnerByIndex",
      "outputs": [
        {
          "internalType": "uint256",
          "name": "",
          "type": "uint256"
        }
      ],
      "stateMutability": "view",
      "type": "function",
      "constant": true
    },
    {
      "inputs": [],
      "name": "getAllNftsOnSale",
      "outputs": [
        {
          "components": [
            {
              "internalType": "uint256",
              "name": "tokenId",
              "type": "uint256"
            },
            {
              "internalType": "uint256",
              "name": "price",
              "type": "uint256"
            },
            {
              "internalType": "address",
              "name": "creator",
              "type": "address"
            },
            {
              "internalType": "bool",
              "name": "isListed",
              "type": "bool"
            }
          ],
          "internalType": "struct NftMarket.NftItem[]",
          "name": "",
          "type": "tuple[]"
        }
      ],
      "stateMutability": "view",
      "type": "function",
      "constant": true
    },
    {
      "inputs": [],
      "name": "getOwnedNfts",
      "outputs": [
        {
          "components": [
            {
              "internalType": "uint256",
              "name": "tokenId",
              "type": "uint256"
            },
            {
              "internalType": "uint256",
              "name": "price",
              "type": "uint256"
            },
            {
              "internalType": "address",
              "name": "creator",
              "type": "address"
            },
            {
              "internalType": "bool",
              "name": "isListed",
              "type": "bool"
            }
          ],
          "internalType": "struct NftMarket.NftItem[]",
          "name": "",
          "type": "tuple[]"
        }
      ],
      "stateMutability": "view",
      "type": "function",
      "constant": true
    },
    {
      "inputs": [
        {
          "internalType": "string",
          "name": "tokenURI",
          "type": "string"
        },
        {
          "internalType": "uint256",
          "name": "price",
          "type": "uint256"
        }
      ],
      "name": "mintToken",
      "outputs": [
        {
          "internalType": "uint256",
          "name": "",
          "type": "uint256"
        }
      ],
      "stateMutability": "payable",
      "type": "function",
      "payable": true
    },
    {
      "inputs": [
        {
          "internalType": "uint256",
          "name": "tokenId",
          "type": "uint256"
        }
      ],
      "name": "buyNft",
      "outputs": [],
      "stateMutability": "payable",
      "type": "function",
      "payable": true
    },
    {
      "inputs": [
        {
          "internalType": "uint256",
          "name": "tokenId",
          "type": "uint256"
        }
      ],
      "name": "burnToken",
      "outputs": [],
      "stateMutability": "nonpayable",
      "type": "function"
    },
    {
      "inputs": [
        {
          "internalType": "uint256",
          "name": "tokenId",
          "type": "uint256"
        },
        {
          "internalType": "uint256",
          "name": "newPrice",
          "type": "uint256"
        }
      ],
      "name": "placeNftOnSale",
      "outputs": [],
      "stateMutability": "payable",
      "type": "function",
      "payable": true
    }
  ],
  "bytecode": "0x60806040526658d15e176280006008553480156200001c57600080fd5b506040518060400160405280600c81526020017f4372656174757265734e465400000000000000000000000000000000000000008152506040518060400160405280600481526020017f434e4654000000000000000000000000000000000000000000000000000000008152508160009080519060200190620000a1929190620001b1565b508060019080519060200190620000ba929190620001b1565b505050620000dd620000d1620000e360201b60201c565b620000eb60201b60201c565b620002c5565b600033905090565b6000600760009054906101000a900473ffffffffffffffffffffffffffffffffffffffff16905081600760006101000a81548173ffffffffffffffffffffffffffffffffffffffff021916908373ffffffffffffffffffffffffffffffffffffffff1602179055508173ffffffffffffffffffffffffffffffffffffffff168173ffffffffffffffffffffffffffffffffffffffff167f8be0079c531659141344cd1fd0a4f28419497f9722a3daafe3b4186f6b6457e060405160405180910390a35050565b828054620001bf9062000290565b90600052602060002090601f016020900481019282620001e357600085556200022f565b82601f10620001fe57805160ff19168380011785556200022f565b828001600101855582156200022f579182015b828111156200022e57825182559160200191906001019062000211565b5b5090506200023e919062000242565b5090565b5b808211156200025d57600081600090555060010162000243565b5090565b7f4e487b7100000000000000000000000000000000000000000000000000000000600052602260045260246000fd5b60006002820490506001821680620002a957607f821691505b602082108103620002bf57620002be62000261565b5b50919050565b61481680620002d56000396000f3fe6080604052600436106101cd5760003560e01c806370a08231116100f7578063a22cb46511610095578063c87b56dd11610064578063c87b56dd14610685578063ccb4918d146106c2578063e985e9c5146106ed578063f2fde38b1461072a576101cd565b8063a22cb465146105d8578063b88d4fde14610601578063c046372c1461062a578063c78f19f91461065a576101cd565b80637b47ec1a116100d15780637b47ec1a146105305780637c726b69146105595780638da5cb5b1461058257806395d89b41146105ad576101cd565b806370a08231146104b157806370cbcb43146104ee578063715018a614610519576101cd565b8063243adbdd1161016f57806343d32ae71161013e57806343d32ae7146103bd5780634f6ccce7146103fa5780636352211e146104375780636f1a0af514610474576101cd565b8063243adbdd146103105780632f745c591461032c57806336b536be1461036957806342842e0e14610394576101cd565b8063095ea7b3116101ab578063095ea7b31461027757806318160ddd146102a057806321f422e5146102cb57806323b872dd146102e7576101cd565b806301ffc9a7146101d257806306fdde031461020f578063081812fc1461023a575b600080fd5b3480156101de57600080fd5b506101f960048036038101906101f49190613021565b610753565b6040516102069190613069565b60405180910390f35b34801561021b57600080fd5b50610224610835565b604051610231919061311d565b60405180910390f35b34801561024657600080fd5b50610261600480360381019061025c9190613175565b6108c7565b60405161026e91906131e3565b60405180910390f35b34801561028357600080fd5b5061029e6004803603810190610299919061322a565b61090d565b005b3480156102ac57600080fd5b506102b5610a24565b6040516102c29190613279565b60405180910390f35b6102e560048036038101906102e09190613294565b610a31565b005b3480156102f357600080fd5b5061030e600480360381019061030991906132d4565b610bad565b005b61032a60048036038101906103259190613175565b610c0d565b005b34801561033857600080fd5b50610353600480360381019061034e919061322a565b610d75565b6040516103609190613279565b60405180910390f35b34801561037557600080fd5b5061037e610e1a565b60405161038b9190613458565b60405180910390f35b3480156103a057600080fd5b506103bb60048036038101906103b691906132d4565b610fb4565b005b3480156103c957600080fd5b506103e460048036038101906103df91906135af565b610fd4565b6040516103f19190613069565b60405180910390f35b34801561040657600080fd5b50610421600480360381019061041c9190613175565b611010565b60405161042e9190613279565b60405180910390f35b34801561044357600080fd5b5061045e60048036038101906104599190613175565b611081565b60405161046b91906131e3565b60405180910390f35b34801561048057600080fd5b5061049b60048036038101906104969190613175565b611132565b6040516104a8919061364d565b60405180910390f35b3480156104bd57600080fd5b506104d860048036038101906104d39190613668565b6111e4565b6040516104e59190613279565b60405180910390f35b3480156104fa57600080fd5b5061050361129b565b6040516105109190613458565b60405180910390f35b34801561052557600080fd5b5061052e6113ff565b005b34801561053c57600080fd5b5061055760048036038101906105529190613175565b611413565b005b34801561056557600080fd5b50610580600480360381019061057b9190613175565b61141f565b005b34801561058e57600080fd5b50610597611474565b6040516105a491906131e3565b60405180910390f35b3480156105b957600080fd5b506105c261149e565b6040516105cf919061311d565b60405180910390f35b3480156105e457600080fd5b506105ff60048036038101906105fa91906136c1565b611530565b005b34801561060d57600080fd5b50610628600480360381019061062391906137a2565b611546565b005b610644600480360381019061063f9190613825565b6115a8565b6040516106519190613279565b60405180910390f35b34801561066657600080fd5b5061066f6116b8565b60405161067c9190613279565b60405180910390f35b34801561069157600080fd5b506106ac60048036038101906106a79190613175565b6116be565b6040516106b9919061311d565b60405180910390f35b3480156106ce57600080fd5b506106d76117d0565b6040516106e49190613279565b60405180910390f35b3480156106f957600080fd5b50610714600480360381019061070f9190613881565b6117e1565b6040516107219190613069565b60405180910390f35b34801561073657600080fd5b50610751600480360381019061074c9190613668565b611875565b005b60007f80ac58cd000000000000000000000000000000000000000000000000000000007bffffffffffffffffffffffffffffffffffffffffffffffffffffffff1916827bffffffffffffffffffffffffffffffffffffffffffffffffffffffff1916148061081e57507f5b5e139f000000000000000000000000000000000000000000000000000000007bffffffffffffffffffffffffffffffffffffffffffffffffffffffff1916827bffffffffffffffffffffffffffffffffffffffffffffffffffffffff1916145b8061082e575061082d826118f8565b5b9050919050565b606060008054610844906138f0565b80601f0160208091040260200160405190810160405280929190818152602001828054610870906138f0565b80156108bd5780601f10610892576101008083540402835291602001916108bd565b820191906000526020600020905b8154815290600101906020018083116108a057829003601f168201915b5050505050905090565b60006108d282611962565b6004600083815260200190815260200160002060009054906101000a900473ffffffffffffffffffffffffffffffffffffffff169050919050565b600061091882611081565b90508073ffffffffffffffffffffffffffffffffffffffff168373ffffffffffffffffffffffffffffffffffffffff1603610988576040517f08c379a000000000000000000000000000000000000000000000000000000000815260040161097f90613993565b60405180910390fd5b8073ffffffffffffffffffffffffffffffffffffffff166109a76119ad565b73ffffffffffffffffffffffffffffffffffffffff1614806109d657506109d5816109d06119ad565b6117e1565b5b610a15576040517f08c379a0000000000000000000000000000000000000000000000000000000008152600401610a0c90613a25565b60405180910390fd5b610a1f83836119b5565b505050565b6000600f80549050905090565b3373ffffffffffffffffffffffffffffffffffffffff16610a5183611081565b73ffffffffffffffffffffffffffffffffffffffff1614610aa7576040517f08c379a0000000000000000000000000000000000000000000000000000000008152600401610a9e90613a91565b60405180910390fd5b60001515600c600084815260200190815260200160002060020160149054906101000a900460ff16151514610b11576040517f08c379a0000000000000000000000000000000000000000000000000000000008152600401610b0890613afd565b60405180910390fd5b6008543414610b55576040517f08c379a0000000000000000000000000000000000000000000000000000000008152600401610b4c90613b8f565b60405180910390fd5b6001600c600084815260200190815260200160002060020160146101000a81548160ff02191690831515021790555080600c600084815260200190815260200160002060010181905550610ba96009611a6e565b5050565b610bbe610bb86119ad565b82611a84565b610bfd576040517f08c379a0000000000000000000000000000000000000000000000000000000008152600401610bf490613c21565b60405180910390fd5b610c08838383611b19565b505050565b6000600c60008381526020019081526020016000206001015490506000610c3383611081565b90508073ffffffffffffffffffffffffffffffffffffffff163373ffffffffffffffffffffffffffffffffffffffff1603610ca3576040517f08c379a0000000000000000000000000000000000000000000000000000000008152600401610c9a90613c8d565b60405180910390fd5b813414610ce5576040517f08c379a0000000000000000000000000000000000000000000000000000000008152600401610cdc90613cf9565b60405180910390fd5b6000600c600085815260200190815260200160002060020160146101000a81548160ff021916908315150217905550610d1e6009611d7f565b610d29813385611b19565b8073ffffffffffffffffffffffffffffffffffffffff166108fc349081150290604051600060405180830381858888f19350505050158015610d6f573d6000803e3d6000fd5b50505050565b6000610d80836111e4565b8210610dc1576040517f08c379a0000000000000000000000000000000000000000000000000000000008152600401610db890613d65565b60405180910390fd5b600d60008473ffffffffffffffffffffffffffffffffffffffff1673ffffffffffffffffffffffffffffffffffffffff168152602001908152602001600020600083815260200190815260200160002054905092915050565b60606000610e26610a24565b9050600080610e356009611ddb565b67ffffffffffffffff811115610e4e57610e4d613484565b5b604051908082528060200260200182016040528015610e8757816020015b610e74612e92565b815260200190600190039081610e6c5790505b50905060005b83811015610faa576000610ea082611010565b90506000600c60008381526020019081526020016000209050600115158160020160149054906101000a900460ff16151503610f95578060405180608001604052908160008201548152602001600182015481526020016002820160009054906101000a900473ffffffffffffffffffffffffffffffffffffffff1673ffffffffffffffffffffffffffffffffffffffff1673ffffffffffffffffffffffffffffffffffffffff1681526020016002820160149054906101000a900460ff161515151581525050848681518110610f7a57610f79613d85565b5b6020026020010181905250600185610f929190613de3565b94505b50508080610fa290613e39565b915050610e8d565b5080935050505090565b610fcf83838360405180602001604052806000815250611546565b505050565b600060011515600b83604051610fea9190613ebd565b908152602001604051809103902060009054906101000a900460ff161515149050919050565b600061101a610a24565b821061105b576040517f08c379a000000000000000000000000000000000000000000000000000000000815260040161105290613d65565b60405180910390fd5b600f828154811061106f5761106e613d85565b5b90600052602060002001549050919050565b6000806002600084815260200190815260200160002060009054906101000a900473ffffffffffffffffffffffffffffffffffffffff169050600073ffffffffffffffffffffffffffffffffffffffff168173ffffffffffffffffffffffffffffffffffffffff1603611129576040517f08c379a000000000000000000000000000000000000000000000000000000000815260040161112090613f20565b60405180910390fd5b80915050919050565b61113a612e92565b600c600083815260200190815260200160002060405180608001604052908160008201548152602001600182015481526020016002820160009054906101000a900473ffffffffffffffffffffffffffffffffffffffff1673ffffffffffffffffffffffffffffffffffffffff1673ffffffffffffffffffffffffffffffffffffffff1681526020016002820160149054906101000a900460ff1615151515815250509050919050565b60008073ffffffffffffffffffffffffffffffffffffffff168273ffffffffffffffffffffffffffffffffffffffff1603611254576040517f08c379a000000000000000000000000000000000000000000000000000000000815260040161124b90613fb2565b60405180910390fd5b600360008373ffffffffffffffffffffffffffffffffffffffff1673ffffffffffffffffffffffffffffffffffffffff168152602001908152602001600020549050919050565b606060006112a8336111e4565b905060008167ffffffffffffffff8111156112c6576112c5613484565b5b6040519080825280602002602001820160405280156112ff57816020015b6112ec612e92565b8152602001906001900390816112e45790505b50905060005b828110156113f65760006113193383610d75565b90506000600c600083815260200190815260200160002090508060405180608001604052908160008201548152602001600182015481526020016002820160009054906101000a900473ffffffffffffffffffffffffffffffffffffffff1673ffffffffffffffffffffffffffffffffffffffff1673ffffffffffffffffffffffffffffffffffffffff1681526020016002820160149054906101000a900460ff1615151515815250508484815181106113d6576113d5613d85565b5b6020026020010181905250505080806113ee90613e39565b915050611305565b50809250505090565b611407611de9565b6114116000611e67565b565b61141c81611f2d565b50565b611427611de9565b6000811161146a576040517f08c379a00000000000000000000000000000000000000000000000000000000081526004016114619061401e565b60405180910390fd5b8060088190555050565b6000600760009054906101000a900473ffffffffffffffffffffffffffffffffffffffff16905090565b6060600180546114ad906138f0565b80601f01602080910402602001604051908101604052809291908181526020018280546114d9906138f0565b80156115265780601f106114fb57610100808354040283529160200191611526565b820191906000526020600020905b81548152906001019060200180831161150957829003601f168201915b5050505050905090565b61154261153b6119ad565b8383611f80565b5050565b6115576115516119ad565b83611a84565b611596576040517f08c379a000000000000000000000000000000000000000000000000000000000815260040161158d90613c21565b60405180910390fd5b6115a2848484846120ec565b50505050565b60006115b383610fd4565b156115f3576040517f08c379a00000000000000000000000000000000000000000000000000000000081526004016115ea9061408a565b60405180910390fd5b6008543414611637576040517f08c379a000000000000000000000000000000000000000000000000000000000815260040161162e90613b8f565b60405180910390fd5b611641600a611a6e565b61164b6009611a6e565b6000611657600a611ddb565b90506116633382612148565b61166d8185612166565b61167781846121da565b6001600b856040516116899190613ebd565b908152602001604051809103902060006101000a81548160ff0219169083151502179055508091505092915050565b60085481565b60606116c982611962565b60006006600084815260200190815260200160002080546116e9906138f0565b80601f0160208091040260200160405190810160405280929190818152602001828054611715906138f0565b80156117625780601f1061173757610100808354040283529160200191611762565b820191906000526020600020905b81548152906001019060200180831161174557829003601f168201915b50505050509050600061177361232a565b905060008151036117885781925050506117cb565b6000825111156117bd5780826040516020016117a59291906140aa565b604051602081830303815290604052925050506117cb565b6117c684612341565b925050505b919050565b60006117dc6009611ddb565b905090565b6000600560008473ffffffffffffffffffffffffffffffffffffffff1673ffffffffffffffffffffffffffffffffffffffff16815260200190815260200160002060008373ffffffffffffffffffffffffffffffffffffffff1673ffffffffffffffffffffffffffffffffffffffff16815260200190815260200160002060009054906101000a900460ff16905092915050565b61187d611de9565b600073ffffffffffffffffffffffffffffffffffffffff168173ffffffffffffffffffffffffffffffffffffffff16036118ec576040517f08c379a00000000000000000000000000000000000000000000000000000000081526004016118e390614140565b60405180910390fd5b6118f581611e67565b50565b60007f01ffc9a7000000000000000000000000000000000000000000000000000000007bffffffffffffffffffffffffffffffffffffffffffffffffffffffff1916827bffffffffffffffffffffffffffffffffffffffffffffffffffffffff1916149050919050565b61196b816123a9565b6119aa576040517f08c379a00000000000000000000000000000000000000000000000000000000081526004016119a190613f20565b60405180910390fd5b50565b600033905090565b816004600083815260200190815260200160002060006101000a81548173ffffffffffffffffffffffffffffffffffffffff021916908373ffffffffffffffffffffffffffffffffffffffff160217905550808273ffffffffffffffffffffffffffffffffffffffff16611a2883611081565b73ffffffffffffffffffffffffffffffffffffffff167f8c5be1e5ebec7d5bd14f71427d1e84f3dd0314c0f7b2291e5b200ac8c7c3b92560405160405180910390a45050565b6001816000016000828254019250508190555050565b600080611a9083611081565b90508073ffffffffffffffffffffffffffffffffffffffff168473ffffffffffffffffffffffffffffffffffffffff161480611ad25750611ad181856117e1565b5b80611b1057508373ffffffffffffffffffffffffffffffffffffffff16611af8846108c7565b73ffffffffffffffffffffffffffffffffffffffff16145b91505092915050565b8273ffffffffffffffffffffffffffffffffffffffff16611b3982611081565b73ffffffffffffffffffffffffffffffffffffffff1614611b8f576040517f08c379a0000000000000000000000000000000000000000000000000000000008152600401611b86906141d2565b60405180910390fd5b600073ffffffffffffffffffffffffffffffffffffffff168273ffffffffffffffffffffffffffffffffffffffff1603611bfe576040517f08c379a0000000000000000000000000000000000000000000000000000000008152600401611bf590614264565b60405180910390fd5b611c09838383612415565b611c146000826119b5565b6001600360008573ffffffffffffffffffffffffffffffffffffffff1673ffffffffffffffffffffffffffffffffffffffff1681526020019081526020016000206000828254611c649190614284565b925050819055506001600360008473ffffffffffffffffffffffffffffffffffffffff1673ffffffffffffffffffffffffffffffffffffffff1681526020019081526020016000206000828254611cbb9190613de3565b92505081905550816002600083815260200190815260200160002060006101000a81548173ffffffffffffffffffffffffffffffffffffffff021916908373ffffffffffffffffffffffffffffffffffffffff160217905550808273ffffffffffffffffffffffffffffffffffffffff168473ffffffffffffffffffffffffffffffffffffffff167fddf252ad1be2c89b69c2b068fc378daa952ba7f163c4a11628f55a4df523b3ef60405160405180910390a4611d7a838383612527565b505050565b60008160000154905060008111611dcb576040517f08c379a0000000000000000000000000000000000000000000000000000000008152600401611dc290614304565b60405180910390fd5b6001810382600001819055505050565b600081600001549050919050565b611df16119ad565b73ffffffffffffffffffffffffffffffffffffffff16611e0f611474565b73ffffffffffffffffffffffffffffffffffffffff1614611e65576040517f08c379a0000000000000000000000000000000000000000000000000000000008152600401611e5c90614370565b60405180910390fd5b565b6000600760009054906101000a900473ffffffffffffffffffffffffffffffffffffffff16905081600760006101000a81548173ffffffffffffffffffffffffffffffffffffffff021916908373ffffffffffffffffffffffffffffffffffffffff1602179055508173ffffffffffffffffffffffffffffffffffffffff168173ffffffffffffffffffffffffffffffffffffffff167f8be0079c531659141344cd1fd0a4f28419497f9722a3daafe3b4186f6b6457e060405160405180910390a35050565b611f368161252c565b6000600660008381526020019081526020016000208054611f56906138f0565b905014611f7d57600660008281526020019081526020016000206000611f7c9190612ed2565b5b50565b8173ffffffffffffffffffffffffffffffffffffffff168373ffffffffffffffffffffffffffffffffffffffff1603611fee576040517f08c379a0000000000000000000000000000000000000000000000000000000008152600401611fe5906143dc565b60405180910390fd5b80600560008573ffffffffffffffffffffffffffffffffffffffff1673ffffffffffffffffffffffffffffffffffffffff16815260200190815260200160002060008473ffffffffffffffffffffffffffffffffffffffff1673ffffffffffffffffffffffffffffffffffffffff16815260200190815260200160002060006101000a81548160ff0219169083151502179055508173ffffffffffffffffffffffffffffffffffffffff168373ffffffffffffffffffffffffffffffffffffffff167f17307eab39ab6107e8899845ad3d59bd9653f200f220920489ca2b5937696c31836040516120df9190613069565b60405180910390a3505050565b6120f7848484611b19565b61210384848484612649565b612142576040517f08c379a00000000000000000000000000000000000000000000000000000000081526004016121399061446e565b60405180910390fd5b50505050565b6121628282604051806020016040528060008152506127d0565b5050565b61216f826123a9565b6121ae576040517f08c379a00000000000000000000000000000000000000000000000000000000081526004016121a590614500565b60405180910390fd5b806006600084815260200190815260200160002090805190602001906121d5929190612f12565b505050565b6000811161221d576040517f08c379a00000000000000000000000000000000000000000000000000000000081526004016122149061401e565b60405180910390fd5b60405180608001604052808381526020018281526020013373ffffffffffffffffffffffffffffffffffffffff16815260200160011515815250600c6000848152602001908152602001600020600082015181600001556020820151816001015560408201518160020160006101000a81548173ffffffffffffffffffffffffffffffffffffffff021916908373ffffffffffffffffffffffffffffffffffffffff16021790555060608201518160020160146101000a81548160ff0219169083151502179055509050507f470031062672bc0246e132c723a729c4676710ec663a29e86c88678032daddea828233600160405161231e9493929190614520565b60405180910390a15050565b606060405180602001604052806000815250905090565b606061234c82611962565b600061235661232a565b9050600081511161237657604051806020016040528060008152506123a1565b806123808461282b565b6040516020016123919291906140aa565b6040516020818303038152906040525b915050919050565b60008073ffffffffffffffffffffffffffffffffffffffff166002600084815260200190815260200160002060009054906101000a900473ffffffffffffffffffffffffffffffffffffffff1673ffffffffffffffffffffffffffffffffffffffff1614159050919050565b61242083838361298b565b600073ffffffffffffffffffffffffffffffffffffffff168373ffffffffffffffffffffffffffffffffffffffff16036124625761245d81612990565b6124a1565b8173ffffffffffffffffffffffffffffffffffffffff168373ffffffffffffffffffffffffffffffffffffffff16146124a05761249f83826129d9565b5b5b600073ffffffffffffffffffffffffffffffffffffffff168273ffffffffffffffffffffffffffffffffffffffff16036124e3576124de81612b46565b612522565b8273ffffffffffffffffffffffffffffffffffffffff168273ffffffffffffffffffffffffffffffffffffffff1614612521576125208282612c17565b5b5b505050565b505050565b600061253782611081565b905061254581600084612415565b6125506000836119b5565b6001600360008373ffffffffffffffffffffffffffffffffffffffff1673ffffffffffffffffffffffffffffffffffffffff16815260200190815260200160002060008282546125a09190614284565b925050819055506002600083815260200190815260200160002060006101000a81549073ffffffffffffffffffffffffffffffffffffffff021916905581600073ffffffffffffffffffffffffffffffffffffffff168273ffffffffffffffffffffffffffffffffffffffff167fddf252ad1be2c89b69c2b068fc378daa952ba7f163c4a11628f55a4df523b3ef60405160405180910390a461264581600084612527565b5050565b600061266a8473ffffffffffffffffffffffffffffffffffffffff16612c96565b156127c3578373ffffffffffffffffffffffffffffffffffffffff1663150b7a026126936119ad565b8786866040518563ffffffff1660e01b81526004016126b594939291906145ba565b6020604051808303816000875af19250505080156126f157506040513d601f19601f820116820180604052508101906126ee919061461b565b60015b612773573d8060008114612721576040519150601f19603f3d011682016040523d82523d6000602084013e612726565b606091505b50600081510361276b576040517f08c379a00000000000000000000000000000000000000000000000000000000081526004016127629061446e565b60405180910390fd5b805181602001fd5b63150b7a0260e01b7bffffffffffffffffffffffffffffffffffffffffffffffffffffffff1916817bffffffffffffffffffffffffffffffffffffffffffffffffffffffff1916149150506127c8565b600190505b949350505050565b6127da8383612cb9565b6127e76000848484612649565b612826576040517f08c379a000000000000000000000000000000000000000000000000000000000815260040161281d9061446e565b60405180910390fd5b505050565b606060008203612872576040518060400160405280600181526020017f30000000000000000000000000000000000000000000000000000000000000008152509050612986565b600082905060005b600082146128a457808061288d90613e39565b915050600a8261289d9190614677565b915061287a565b60008167ffffffffffffffff8111156128c0576128bf613484565b5b6040519080825280601f01601f1916602001820160405280156128f25781602001600182028036833780820191505090505b5090505b6000851461297f5760018261290b9190614284565b9150600a8561291a91906146a8565b60306129269190613de3565b60f81b81838151811061293c5761293b613d85565b5b60200101907effffffffffffffffffffffffffffffffffffffffffffffffffffffffffffff1916908160001a905350600a856129789190614677565b94506128f6565b8093505050505b919050565b505050565b600f805490506010600083815260200190815260200160002081905550600f81908060018154018082558091505060019003906000526020600020016000909190919091505550565b600060016129e6846111e4565b6129f09190614284565b90506000600e6000848152602001908152602001600020549050818114612ad5576000600d60008673ffffffffffffffffffffffffffffffffffffffff1673ffffffffffffffffffffffffffffffffffffffff168152602001908152602001600020600084815260200190815260200160002054905080600d60008773ffffffffffffffffffffffffffffffffffffffff1673ffffffffffffffffffffffffffffffffffffffff16815260200190815260200160002060008481526020019081526020016000208190555081600e600083815260200190815260200160002081905550505b600e600084815260200190815260200160002060009055600d60008573ffffffffffffffffffffffffffffffffffffffff1673ffffffffffffffffffffffffffffffffffffffff16815260200190815260200160002060008381526020019081526020016000206000905550505050565b60006001600f80549050612b5a9190614284565b90506000601060008481526020019081526020016000205490506000600f8381548110612b8a57612b89613d85565b5b9060005260206000200154905080600f8381548110612bac57612bab613d85565b5b90600052602060002001819055508160106000838152602001908152602001600020819055506010600085815260200190815260200160002060009055600f805480612bfb57612bfa6146d9565b5b6001900381819060005260206000200160009055905550505050565b6000612c22836111e4565b905081600d60008573ffffffffffffffffffffffffffffffffffffffff1673ffffffffffffffffffffffffffffffffffffffff16815260200190815260200160002060008381526020019081526020016000208190555080600e600084815260200190815260200160002081905550505050565b6000808273ffffffffffffffffffffffffffffffffffffffff163b119050919050565b600073ffffffffffffffffffffffffffffffffffffffff168273ffffffffffffffffffffffffffffffffffffffff1603612d28576040517f08c379a0000000000000000000000000000000000000000000000000000000008152600401612d1f90614754565b60405180910390fd5b612d31816123a9565b15612d71576040517f08c379a0000000000000000000000000000000000000000000000000000000008152600401612d68906147c0565b60405180910390fd5b612d7d60008383612415565b6001600360008473ffffffffffffffffffffffffffffffffffffffff1673ffffffffffffffffffffffffffffffffffffffff1681526020019081526020016000206000828254612dcd9190613de3565b92505081905550816002600083815260200190815260200160002060006101000a81548173ffffffffffffffffffffffffffffffffffffffff021916908373ffffffffffffffffffffffffffffffffffffffff160217905550808273ffffffffffffffffffffffffffffffffffffffff16600073ffffffffffffffffffffffffffffffffffffffff167fddf252ad1be2c89b69c2b068fc378daa952ba7f163c4a11628f55a4df523b3ef60405160405180910390a4612e8e60008383612527565b5050565b60405180608001604052806000815260200160008152602001600073ffffffffffffffffffffffffffffffffffffffff1681526020016000151581525090565b508054612ede906138f0565b6000825580601f10612ef05750612f0f565b601f016020900490600052602060002090810190612f0e9190612f98565b5b50565b828054612f1e906138f0565b90600052602060002090601f016020900481019282612f405760008555612f87565b82601f10612f5957805160ff1916838001178555612f87565b82800160010185558215612f87579182015b82811115612f86578251825591602001919060010190612f6b565b5b509050612f949190612f98565b5090565b5b80821115612fb1576000816000905550600101612f99565b5090565b6000604051905090565b600080fd5b600080fd5b60007fffffffff0000000000000000000000000000000000000000000000000000000082169050919050565b612ffe81612fc9565b811461300957600080fd5b50565b60008135905061301b81612ff5565b92915050565b60006020828403121561303757613036612fbf565b5b60006130458482850161300c565b91505092915050565b60008115159050919050565b6130638161304e565b82525050565b600060208201905061307e600083018461305a565b92915050565b600081519050919050565b600082825260208201905092915050565b60005b838110156130be5780820151818401526020810190506130a3565b838111156130cd576000848401525b50505050565b6000601f19601f8301169050919050565b60006130ef82613084565b6130f9818561308f565b93506131098185602086016130a0565b613112816130d3565b840191505092915050565b6000602082019050818103600083015261313781846130e4565b905092915050565b6000819050919050565b6131528161313f565b811461315d57600080fd5b50565b60008135905061316f81613149565b92915050565b60006020828403121561318b5761318a612fbf565b5b600061319984828501613160565b91505092915050565b600073ffffffffffffffffffffffffffffffffffffffff82169050919050565b60006131cd826131a2565b9050919050565b6131dd816131c2565b82525050565b60006020820190506131f860008301846131d4565b92915050565b613207816131c2565b811461321257600080fd5b50565b600081359050613224816131fe565b92915050565b6000806040838503121561324157613240612fbf565b5b600061324f85828601613215565b925050602061326085828601613160565b9150509250929050565b6132738161313f565b82525050565b600060208201905061328e600083018461326a565b92915050565b600080604083850312156132ab576132aa612fbf565b5b60006132b985828601613160565b92505060206132ca85828601613160565b9150509250929050565b6000806000606084860312156132ed576132ec612fbf565b5b60006132fb86828701613215565b935050602061330c86828701613215565b925050604061331d86828701613160565b9150509250925092565b600081519050919050565b600082825260208201905092915050565b6000819050602082019050919050565b61335c8161313f565b82525050565b61336b816131c2565b82525050565b61337a8161304e565b82525050565b6080820160008201516133966000850182613353565b5060208201516133a96020850182613353565b5060408201516133bc6040850182613362565b5060608201516133cf6060850182613371565b50505050565b60006133e18383613380565b60808301905092915050565b6000602082019050919050565b600061340582613327565b61340f8185613332565b935061341a83613343565b8060005b8381101561344b57815161343288826133d5565b975061343d836133ed565b92505060018101905061341e565b5085935050505092915050565b6000602082019050818103600083015261347281846133fa565b905092915050565b600080fd5b600080fd5b7f4e487b7100000000000000000000000000000000000000000000000000000000600052604160045260246000fd5b6134bc826130d3565b810181811067ffffffffffffffff821117156134db576134da613484565b5b80604052505050565b60006134ee612fb5565b90506134fa82826134b3565b919050565b600067ffffffffffffffff82111561351a57613519613484565b5b613523826130d3565b9050602081019050919050565b82818337600083830152505050565b600061355261354d846134ff565b6134e4565b90508281526020810184848401111561356e5761356d61347f565b5b613579848285613530565b509392505050565b600082601f8301126135965761359561347a565b5b81356135a684826020860161353f565b91505092915050565b6000602082840312156135c5576135c4612fbf565b5b600082013567ffffffffffffffff8111156135e3576135e2612fc4565b5b6135ef84828501613581565b91505092915050565b60808201600082015161360e6000850182613353565b5060208201516136216020850182613353565b5060408201516136346040850182613362565b5060608201516136476060850182613371565b50505050565b600060808201905061366260008301846135f8565b92915050565b60006020828403121561367e5761367d612fbf565b5b600061368c84828501613215565b91505092915050565b61369e8161304e565b81146136a957600080fd5b50565b6000813590506136bb81613695565b92915050565b600080604083850312156136d8576136d7612fbf565b5b60006136e685828601613215565b92505060206136f7858286016136ac565b9150509250929050565b600067ffffffffffffffff82111561371c5761371b613484565b5b613725826130d3565b9050602081019050919050565b600061374561374084613701565b6134e4565b9050828152602081018484840111156137615761376061347f565b5b61376c848285613530565b509392505050565b600082601f8301126137895761378861347a565b5b8135613799848260208601613732565b91505092915050565b600080600080608085870312156137bc576137bb612fbf565b5b60006137ca87828801613215565b94505060206137db87828801613215565b93505060406137ec87828801613160565b925050606085013567ffffffffffffffff81111561380d5761380c612fc4565b5b61381987828801613774565b91505092959194509250565b6000806040838503121561383c5761383b612fbf565b5b600083013567ffffffffffffffff81111561385a57613859612fc4565b5b61386685828601613581565b925050602061387785828601613160565b9150509250929050565b6000806040838503121561389857613897612fbf565b5b60006138a685828601613215565b92505060206138b785828601613215565b9150509250929050565b7f4e487b7100000000000000000000000000000000000000000000000000000000600052602260045260246000fd5b6000600282049050600182168061390857607f821691505b60208210810361391b5761391a6138c1565b5b50919050565b7f4552433732313a20617070726f76616c20746f2063757272656e74206f776e6560008201527f7200000000000000000000000000000000000000000000000000000000000000602082015250565b600061397d60218361308f565b915061398882613921565b604082019050919050565b600060208201905081810360008301526139ac81613970565b9050919050565b7f4552433732313a20617070726f76652063616c6c6572206973206e6f7420746f60008201527f6b656e206f776e6572206e6f7220617070726f76656420666f7220616c6c0000602082015250565b6000613a0f603e8361308f565b9150613a1a826139b3565b604082019050919050565b60006020820190508181036000830152613a3e81613a02565b9050919050565b7f596f7520617265206e6f74206f776e6572206f662074686973206e6674000000600082015250565b6000613a7b601d8361308f565b9150613a8682613a45565b602082019050919050565b60006020820190508181036000830152613aaa81613a6e565b9050919050565b7f4974656d20697320616c7265616479206f6e2073616c65000000000000000000600082015250565b6000613ae760178361308f565b9150613af282613ab1565b602082019050919050565b60006020820190508181036000830152613b1681613ada565b9050919050565b7f5072696365206d75737420626520657175616c20746f206c697374696e67207060008201527f7269636500000000000000000000000000000000000000000000000000000000602082015250565b6000613b7960248361308f565b9150613b8482613b1d565b604082019050919050565b60006020820190508181036000830152613ba881613b6c565b9050919050565b7f4552433732313a2063616c6c6572206973206e6f7420746f6b656e206f776e6560008201527f72206e6f7220617070726f766564000000000000000000000000000000000000602082015250565b6000613c0b602e8361308f565b9150613c1682613baf565b604082019050919050565b60006020820190508181036000830152613c3a81613bfe565b9050919050565b7f596f7520616c7265616479206f776e2074686973204e46540000000000000000600082015250565b6000613c7760188361308f565b9150613c8282613c41565b602082019050919050565b60006020820190508181036000830152613ca681613c6a565b9050919050565b7f506c65617365207375626d6974207468652061736b696e672070726963650000600082015250565b6000613ce3601e8361308f565b9150613cee82613cad565b602082019050919050565b60006020820190508181036000830152613d1281613cd6565b9050919050565b7f496e646578206f7574206f6620626f756e647300000000000000000000000000600082015250565b6000613d4f60138361308f565b9150613d5a82613d19565b602082019050919050565b60006020820190508181036000830152613d7e81613d42565b9050919050565b7f4e487b7100000000000000000000000000000000000000000000000000000000600052603260045260246000fd5b7f4e487b7100000000000000000000000000000000000000000000000000000000600052601160045260246000fd5b6000613dee8261313f565b9150613df98361313f565b9250827fffffffffffffffffffffffffffffffffffffffffffffffffffffffffffffffff03821115613e2e57613e2d613db4565b5b828201905092915050565b6000613e448261313f565b91507fffffffffffffffffffffffffffffffffffffffffffffffffffffffffffffffff8203613e7657613e75613db4565b5b600182019050919050565b600081905092915050565b6000613e9782613084565b613ea18185613e81565b9350613eb18185602086016130a0565b80840191505092915050565b6000613ec98284613e8c565b915081905092915050565b7f4552433732313a20696e76616c696420746f6b656e2049440000000000000000600082015250565b6000613f0a60188361308f565b9150613f1582613ed4565b602082019050919050565b60006020820190508181036000830152613f3981613efd565b9050919050565b7f4552433732313a2061646472657373207a65726f206973206e6f74206120766160008201527f6c6964206f776e65720000000000000000000000000000000000000000000000602082015250565b6000613f9c60298361308f565b9150613fa782613f40565b604082019050919050565b60006020820190508181036000830152613fcb81613f8f565b9050919050565b7f5072696365206d757374206265206174206c6561737420312077656900000000600082015250565b6000614008601c8361308f565b915061401382613fd2565b602082019050919050565b6000602082019050818103600083015261403781613ffb565b9050919050565b7f546f6b656e2055524920616c7265616479206578697374730000000000000000600082015250565b600061407460188361308f565b915061407f8261403e565b602082019050919050565b600060208201905081810360008301526140a381614067565b9050919050565b60006140b68285613e8c565b91506140c28284613e8c565b91508190509392505050565b7f4f776e61626c653a206e6577206f776e657220697320746865207a65726f206160008201527f6464726573730000000000000000000000000000000000000000000000000000602082015250565b600061412a60268361308f565b9150614135826140ce565b604082019050919050565b600060208201905081810360008301526141598161411d565b9050919050565b7f4552433732313a207472616e736665722066726f6d20696e636f72726563742060008201527f6f776e6572000000000000000000000000000000000000000000000000000000602082015250565b60006141bc60258361308f565b91506141c782614160565b604082019050919050565b600060208201905081810360008301526141eb816141af565b9050919050565b7f4552433732313a207472616e7366657220746f20746865207a65726f2061646460008201527f7265737300000000000000000000000000000000000000000000000000000000602082015250565b600061424e60248361308f565b9150614259826141f2565b604082019050919050565b6000602082019050818103600083015261427d81614241565b9050919050565b600061428f8261313f565b915061429a8361313f565b9250828210156142ad576142ac613db4565b5b828203905092915050565b7f436f756e7465723a2064656372656d656e74206f766572666c6f770000000000600082015250565b60006142ee601b8361308f565b91506142f9826142b8565b602082019050919050565b6000602082019050818103600083015261431d816142e1565b9050919050565b7f4f776e61626c653a2063616c6c6572206973206e6f7420746865206f776e6572600082015250565b600061435a60208361308f565b915061436582614324565b602082019050919050565b600060208201905081810360008301526143898161434d565b9050919050565b7f4552433732313a20617070726f766520746f2063616c6c657200000000000000600082015250565b60006143c660198361308f565b91506143d182614390565b602082019050919050565b600060208201905081810360008301526143f5816143b9565b9050919050565b7f4552433732313a207472616e7366657220746f206e6f6e20455243373231526560008201527f63656976657220696d706c656d656e7465720000000000000000000000000000602082015250565b600061445860328361308f565b9150614463826143fc565b604082019050919050565b600060208201905081810360008301526144878161444b565b9050919050565b7f45524337323155524953746f726167653a2055524920736574206f66206e6f6e60008201527f6578697374656e7420746f6b656e000000000000000000000000000000000000602082015250565b60006144ea602e8361308f565b91506144f58261448e565b604082019050919050565b60006020820190508181036000830152614519816144dd565b9050919050565b6000608082019050614535600083018761326a565b614542602083018661326a565b61454f60408301856131d4565b61455c606083018461305a565b95945050505050565b600081519050919050565b600082825260208201905092915050565b600061458c82614565565b6145968185614570565b93506145a68185602086016130a0565b6145af816130d3565b840191505092915050565b60006080820190506145cf60008301876131d4565b6145dc60208301866131d4565b6145e9604083018561326a565b81810360608301526145fb8184614581565b905095945050505050565b60008151905061461581612ff5565b92915050565b60006020828403121561463157614630612fbf565b5b600061463f84828501614606565b91505092915050565b7f4e487b7100000000000000000000000000000000000000000000000000000000600052601260045260246000fd5b60006146828261313f565b915061468d8361313f565b92508261469d5761469c614648565b5b828204905092915050565b60006146b38261313f565b91506146be8361313f565b9250826146ce576146cd614648565b5b828206905092915050565b7f4e487b7100000000000000000000000000000000000000000000000000000000600052603160045260246000fd5b7f4552433732313a206d696e7420746f20746865207a65726f2061646472657373600082015250565b600061473e60208361308f565b915061474982614708565b602082019050919050565b6000602082019050818103600083015261476d81614731565b9050919050565b7f4552433732313a20746f6b656e20616c7265616479206d696e74656400000000600082015250565b60006147aa601c8361308f565b91506147b582614774565b602082019050919050565b600060208201905081810360008301526147d98161479d565b905091905056fea2646970667358221220c3874b08ee5f7250580b6f37162a2f027727e1447f75bab127b3a790b760fd7664736f6c634300080d0033",
  "immutableReferences": {},
  "source": "// SPDX-License-Identifier: MIT\npragma solidity >=0.4.22 <0.9.0;\n\nimport \"@openzeppelin/contracts/token/ERC721/extensions/ERC721URIStorage.sol\";\nimport \"@openzeppelin/contracts/utils/Counters.sol\";\nimport \"@openzeppelin/contracts/access/Ownable.sol\";\n\ncontract NftMarket is ERC721URIStorage, Ownable {\n    using Counters for Counters.Counter;\n\n    struct NftItem {\n        uint256 tokenId;\n        uint256 price;\n        address creator;\n        bool isListed;\n    }\n\n    uint256 public listingPrice = 0.025 ether;\n\n    Counters.Counter private _listedItems;\n    Counters.Counter private _tokenIds;\n\n    mapping(string => bool) private _usedTokenURIs;\n    mapping(uint256 => NftItem) private _idToNftItem;\n\n    mapping(address => mapping(uint256 => uint256)) private _ownedTokens;\n    mapping(uint256 => uint256) private _idToOwnedIndex;\n\n    uint256[] private _allNfts;\n    mapping(uint256 => uint256) private _idToNftIndex;\n\n    event NftItemCreated(\n        uint256 tokenId,\n        uint256 price,\n        address creator,\n        bool isListed\n    );\n\n    constructor() ERC721(\"CreaturesNFT\", \"CNFT\") {}\n\n    function setListingPrice(uint256 newPrice) external onlyOwner {\n        require(newPrice > 0, \"Price must be at least 1 wei\");\n        listingPrice = newPrice;\n    }\n\n    function getNftItem(uint256 tokenId) public view returns (NftItem memory) {\n        return _idToNftItem[tokenId];\n    }\n\n    function listedItemsCount() public view returns (uint256) {\n        return _listedItems.current();\n    }\n\n    function tokenURIExists(string memory tokenURI) public view returns (bool) {\n        return _usedTokenURIs[tokenURI] == true;\n    }\n\n    function totalSupply() public view returns (uint256) {\n        return _allNfts.length;\n    }\n\n    function tokenByIndex(uint256 index) public view returns (uint256) {\n        require(index < totalSupply(), \"Index out of bounds\");\n        return _allNfts[index];\n    }\n\n    function tokenOfOwnerByIndex(address owner, uint256 index)\n        public\n        view\n        returns (uint256)\n    {\n        require(index < ERC721.balanceOf(owner), \"Index out of bounds\");\n        return _ownedTokens[owner][index];\n    }\n\n    function getAllNftsOnSale() public view returns (NftItem[] memory) {\n        uint256 allItemsCounts = totalSupply();\n        uint256 currentIndex = 0;\n        NftItem[] memory items = new NftItem[](_listedItems.current());\n\n        for (uint256 i = 0; i < allItemsCounts; i++) {\n            uint256 tokenId = tokenByIndex(i);\n            NftItem storage item = _idToNftItem[tokenId];\n\n            if (item.isListed == true) {\n                items[currentIndex] = item;\n                currentIndex += 1;\n            }\n        }\n\n        return items;\n    }\n\n    function getOwnedNfts() public view returns (NftItem[] memory) {\n        uint256 ownedItemsCount = ERC721.balanceOf(msg.sender);\n        NftItem[] memory items = new NftItem[](ownedItemsCount);\n\n        for (uint256 i = 0; i < ownedItemsCount; i++) {\n            uint256 tokenId = tokenOfOwnerByIndex(msg.sender, i);\n            NftItem storage item = _idToNftItem[tokenId];\n            items[i] = item;\n        }\n\n        return items;\n    }\n\n    function mintToken(string memory tokenURI, uint256 price)\n        public\n        payable\n        returns (uint256)\n    {\n        require(!tokenURIExists(tokenURI), \"Token URI already exists\");\n        require(\n            msg.value == listingPrice,\n            \"Price must be equal to listing price\"\n        );\n\n        _tokenIds.increment();\n        _listedItems.increment();\n\n        uint256 newTokenId = _tokenIds.current();\n\n        _safeMint(msg.sender, newTokenId);\n        _setTokenURI(newTokenId, tokenURI);\n        _createNftItem(newTokenId, price);\n        _usedTokenURIs[tokenURI] = true;\n\n        return newTokenId;\n    }\n\n    function buyNft(uint256 tokenId) public payable {\n        uint256 price = _idToNftItem[tokenId].price;\n        address owner = ERC721.ownerOf(tokenId);\n\n        require(msg.sender != owner, \"You already own this NFT\");\n        require(msg.value == price, \"Please submit the asking price\");\n\n        _idToNftItem[tokenId].isListed = false;\n        _listedItems.decrement();\n\n        _transfer(owner, msg.sender, tokenId);\n        payable(owner).transfer(msg.value);\n    }\n\n    function _createNftItem(uint256 tokenId, uint256 price) private {\n        require(price > 0, \"Price must be at least 1 wei\");\n\n        _idToNftItem[tokenId] = NftItem(tokenId, price, msg.sender, true);\n\n        emit NftItemCreated(tokenId, price, msg.sender, true);\n    }\n\n    function _beforeTokenTransfer(\n        address from,\n        address to,\n        uint256 tokenId\n    ) internal virtual override {\n        super._beforeTokenTransfer(from, to, tokenId);\n\n        if (from == address(0)) {\n            _addTokenToAllTokensEnumeration(tokenId);\n        } else if (from != to) {\n            _removeTokenFromOwnerEnumeration(from, tokenId);\n        }\n\n        if (to == address(0)) {\n            _removeTokenFromAllTokensEnumeration(tokenId);\n        } else if (to != from) {\n            _addTokenToOwnerEnumeration(to, tokenId);\n        }\n    }\n\n    function _addTokenToAllTokensEnumeration(uint256 tokenId) private {\n        _idToNftIndex[tokenId] = _allNfts.length;\n        _allNfts.push(tokenId);\n    }\n\n    function _addTokenToOwnerEnumeration(address to, uint256 tokenId) private {\n        uint256 length = ERC721.balanceOf(to);\n        _ownedTokens[to][length] = tokenId;\n        _idToOwnedIndex[tokenId] = length;\n    }\n\n    function _removeTokenFromOwnerEnumeration(address from, uint256 tokenId)\n        private\n    {\n        uint256 lastTokenIndex = ERC721.balanceOf(from) - 1;\n        uint256 tokenIndex = _idToOwnedIndex[tokenId];\n\n        if (tokenIndex != lastTokenIndex) {\n            uint256 lastTokenId = _ownedTokens[from][lastTokenIndex];\n\n            _ownedTokens[from][tokenIndex] = lastTokenId;\n            _idToOwnedIndex[lastTokenId] = tokenIndex;\n        }\n\n        delete _idToOwnedIndex[tokenId];\n        delete _ownedTokens[from][lastTokenIndex];\n    }\n\n    function _removeTokenFromAllTokensEnumeration(uint256 tokenId) private {\n        uint256 lastTokenIndex = _allNfts.length - 1;\n        uint256 tokenIndex = _idToNftIndex[tokenId];\n        uint256 lastTokenId = _allNfts[lastTokenIndex];\n\n        _allNfts[tokenIndex] = lastTokenId;\n        _idToNftIndex[lastTokenId] = tokenIndex;\n\n        delete _idToNftIndex[tokenId];\n        _allNfts.pop();\n    }\n\n    function burnToken(uint256 tokenId) public {\n        _burn(tokenId);\n    }\n\n    function placeNftOnSale(uint256 tokenId, uint256 newPrice) public payable {\n        require(\n            ERC721.ownerOf(tokenId) == msg.sender,\n            \"You are not owner of this nft\"\n        );\n        require(\n            _idToNftItem[tokenId].isListed == false,\n            \"Item is already on sale\"\n        );\n        require(\n            msg.value == listingPrice,\n            \"Price must be equal to listing price\"\n        );\n\n        _idToNftItem[tokenId].isListed = true;\n        _idToNftItem[tokenId].price = newPrice;\n        _listedItems.increment();\n    }\n}\n",
  "sourcePath": "/home/lap15473/Desktop/pet-project/nft-marketplace/contracts/NftMarket.sol",
  "compiler": {
    "name": "solc",
    "version": "0.8.13+commit.abaa5c0e.Emscripten.clang"
  },
  "schemaVersion": "3.4.9",
  "updatedAt": "2022-09-10T03:53:28.550Z",
  "networkType": "ethereum",
  "devdoc": {
    "kind": "dev",
    "methods": {
      "approve(address,uint256)": {
        "details": "See {IERC721-approve}."
      },
      "balanceOf(address)": {
        "details": "See {IERC721-balanceOf}."
      },
      "getApproved(uint256)": {
        "details": "See {IERC721-getApproved}."
      },
      "isApprovedForAll(address,address)": {
        "details": "See {IERC721-isApprovedForAll}."
      },
      "name()": {
        "details": "See {IERC721Metadata-name}."
      },
      "owner()": {
        "details": "Returns the address of the current owner."
      },
      "ownerOf(uint256)": {
        "details": "See {IERC721-ownerOf}."
      },
      "renounceOwnership()": {
        "details": "Leaves the contract without owner. It will not be possible to call `onlyOwner` functions anymore. Can only be called by the current owner. NOTE: Renouncing ownership will leave the contract without an owner, thereby removing any functionality that is only available to the owner."
      },
      "safeTransferFrom(address,address,uint256)": {
        "details": "See {IERC721-safeTransferFrom}."
      },
      "safeTransferFrom(address,address,uint256,bytes)": {
        "details": "See {IERC721-safeTransferFrom}."
      },
      "setApprovalForAll(address,bool)": {
        "details": "See {IERC721-setApprovalForAll}."
      },
      "supportsInterface(bytes4)": {
        "details": "See {IERC165-supportsInterface}."
      },
      "symbol()": {
        "details": "See {IERC721Metadata-symbol}."
      },
      "tokenURI(uint256)": {
        "details": "See {IERC721Metadata-tokenURI}."
      },
      "transferFrom(address,address,uint256)": {
        "details": "See {IERC721-transferFrom}."
      },
      "transferOwnership(address)": {
        "details": "Transfers ownership of the contract to a new account (`newOwner`). Can only be called by the current owner."
      }
    },
    "version": 1
  },
  "userdoc": {
    "kind": "user",
    "methods": {},
    "version": 1
  }
}